:10000000C81B0320C5220100DBDD0300B122010073
:10001000B1220100B1220100B1220100B122010090
:10002000000000000000000000000000FD220100B0
:10003000B122010000000000D1240100B122010022
:1000400055250100552501005525010055250100C4
:1000500055250100552501005525010055250100B4
:1000600055250100552501005525010055250100A4
:100070005525010055250100552501005525010094
:100260005525010055250100797102005525010031
:100270005525010055250100552501005525010092
:100280005525010055250100552501005525010082
:100290005525010055250100552501005525010072
:1002A0005525010055250100552501005525010062
:1004800081F0004102E000BF83F0004330B54FEA45
:1004900041044FEA430594EA050F08BF90EA020FB2
:1004A0001FBF54EA000C55EA020C7FEA645C7FEA45
:1004B000655C00F0E2804FEA5454D4EB5555B8BF68
:1004C0006D420CDD2C4480EA020281EA030382EAD9
:1004D000000083EA010180EA020281EA0303362D6B
:1004E00088BF30BD11F0004F4FEA01314FF4801C3E
:1004F0004CEA113102D0404261EB410113F0004F50
:100500004FEA03334CEA133302D0524263EB430306
:1005100094EA050F00F0A780A4F10104D5F1200EA4
:100520000DDB02FA0EFC22FA05F2801841F10001FF
:1005300003FA0EF2801843FA05F359410EE0A5F1D3
:1005400020050EF1200E012A03FA0EFC28BF4CF004
:10055000020C43FA05F3C01851EBE37101F00045BA
:1005600007D54FF0000EDCF1000C7EEB00006EEBC7
:100570000101B1F5801F1BD3B1F5001F0CD3490851
:100580005FEA30004FEA3C0C04F101044FEA4452A8
:1005900012F5800F80F09A80BCF1004F08BF5FEA2F
:1005A000500C50F1000041EB045141EA050130BD0F
:1005B0005FEA4C0C404141EB0101013C28BFB1F521
:1005C000801FE9D291F0000F04BF01460020B1FA6C
:1005D00081F308BF2033A3F10B03B3F120020CDA3F
:1005E0000C3208DD02F1140CC2F10C0201FA0CF01D
:1005F00021FA02F10CE002F11402D8BFC2F1200C82
:1006000001FA02F120FA0CFCDCBF41EA0C01904037
:10061000E41AA2BF01EB0451294330BD6FEA040480
:100620001F3C1CDA0C340EDC04F11404C4F120026B
:1006300020FA04F001FA02F340EA030021FA04F37D
:1006400045EA030130BDC4F10C04C4F1200220FAD4
:1006500002F001FA04F340EA0300294630BD21FA12
:1006600004F0294630BD94F0000F83F4801306BFD8
:1006700081F480110134013D4EE77FEA645C18BFCC
:100680007FEA655C29D094EA050F08BF90EA020F63
:1006900005D054EA000C04BF1946104630BD91EA5B
:1006A000030F1EBF0021002030BD5FEA545C05D15E
:1006B0004000494128BF41F0004130BD14F580049D
:1006C0003CBF01F5801130BD01F0004545F0FE4111
:1006D00041F470014FF0000030BD7FEA645C1ABF46
:1006E000194610467FEA655C1CBF0B46024650EA7D
:1006F000013406BF52EA033591EA030F41F40021A9
:1007000030BD00BF90F0000F04BF0021704730B52E
:100710004FF4806404F132044FF000054FF0000103
:1007200050E700BF90F0000F04BF0021704730B5C4
:100730004FF4806404F1320410F0004548BF404299
:100740004FF000013EE700BF42004FEAE2014FEAEE
:1007500031014FEA02701FBF12F07F4393F07F4FC9
:1007600081F06051704732F07F4208BF704793F0CC
:100770007F4F04BF41F40021704730B54FF46074DF
:1007800001F0004521F000411CE700BF50EA0102E2
:1007900008BF704730B54FF000050AE050EA01028B
:1007A00008BF704730B511F0004502D5404261EBFB
:1007B00041014FF4806404F132045FEA915C3FF43C
:1007C000D8AE4FF003025FEADC0C18BF03325FEAD9
:1007D000DC0C18BF033202EBDC02C2F1200300FA8A
:1007E00003FC20FA02F001FA03FE40EA0E0021FAAF
:1007F00002F11444BDE600BF70B54FF0FF0C4CF49D
:10080000E06C1CEA11541DBF1CEA135594EA0C0F4E
:1008100095EA0C0F00F0DEF82C4481EA030621EA89
:100820004C5123EA4C5350EA013518BF52EA0335C4
:1008300041F4801143F4801338D0A0FB02CE4FF076
:100840000005E1FB02E506F00042E0FB03E54FF0A6
:100850000006E1FB03569CF0000F18BF4EF0010E9E
:10086000A4F1FF04B6F5007F64F5407404D25FEA9A
:100870004E0E6D4146EB060642EAC62141EA55514D
:100880004FEAC52040EA5E504FEACE2EB4F1FD0C8F
:1008900088BFBCF5E06F1ED8BEF1004F08BF5FEA0D
:1008A000500E50F1000041EB045170BD06F00046BF
:1008B00046EA010140EA020081EA0301B4EB5C046C
:1008C000C2BFD4EB0C0541EA045170BD41F4801164
:1008D0004FF0000E013C00F3AB8014F1360FDEBF89
:1008E000002001F0004170BDC4F10004203C35DA65
:1008F0000C341BDC04F11404C4F1200500FA05F3E8
:1009000020FA04F001FA05F240EA020001F0004288
:1009100021F0004110EBD37021FA04F642EB0601FE
:100920005EEA430E08BF20EAD37070BDC4F10C0428
:10093000C4F1200500FA04F320FA05F001FA04F2EC
:1009400040EA020001F0004110EBD37041F10001D8
:100950005EEA430E08BF20EAD37070BDC4F12005E3
:1009600000FA05F24EEA020E20FA04F301FA05F24B
:1009700043EA020321FA04F001F0004121FA04F2F3
:1009800020EA020000EBD3705EEA430E08BF20EAC3
:10099000D37070BD94F0000F0FD101F000464000FD
:1009A00041EB010111F4801F08BF013CF7D041EA7F
:1009B000060195F0000F18BF704703F00046520083
:1009C00043EB030313F4801F08BF013DF7D043EA54
:1009D0000603704794EA0C0F0CEA135518BF95EA0A
:1009E0000C0F0CD050EA410618BF52EA4306D1D191
:1009F00081EA030101F000414FF0000070BD50EAB0
:100A0000410606BF1046194652EA430619D094EA39
:100A10000C0F02D150EA013613D195EA0C0F05D123
:100A200052EA03361CBF104619460AD181EA030177
:100A300001F0004141F0FE4141F470014FF000002F
:100A400070BD41F0FE4141F4780170BD70B54FF0CA
:100A5000FF0C4CF4E06C1CEA11541DBF1CEA13554A
:100A600094EA0C0F95EA0C0F00F0A7F8A4EB05042C
:100A700081EA030E52EA03354FEA013100F0888023
:100A80004FEA03334FF0805545EA131343EA1263EC
:100A90004FEA022245EA111545EA10654FEA0026A1
:100AA0000EF000419D4208BF964244F1FD0404F55A
:100AB000407402D25B084FEA3202B61A65EB0305B6
:100AC0005B084FEA32024FF480104FF4002CB6EB73
:100AD000020E75EB030E22BFB61A754640EA0C00F3
:100AE0005B084FEA3202B6EB020E75EB030E22BF33
:100AF000B61A754640EA5C005B084FEA3202B6EB74
:100B0000020E75EB030E22BFB61A754640EA9C0032
:100B10005B084FEA3202B6EB020E75EB030E22BF02
:100B2000B61A754640EADC0055EA060E18D04FEAC0
:100B3000051545EA16754FEA06164FEAC30343EA60
:100B400052734FEAC2025FEA1C1CC0D111F4801F2D
:100B50000BD141EA00014FF000004FF0004CB6E726
:100B600011F4801F04BF01430020B4F1FD0C88BFC5
:100B7000BCF5E06F3FF6AFAEB5EB030C04BFB6EBD0
:100B8000020C5FEA500C50F1000041EB045170BDC3
:100B90000EF0004E4EEA113114EB5C04C2BFD4EBF0
:100BA0000C0541EA045170BD41F480114FF0000E74
:100BB000013C90E645EA060E8DE60CEA135594EAF0
:100BC0000C0F08BF95EA0C0F3FF43BAF94EA0C0FF3
:100BD0000AD150EA01347FF434AF95EA0C0F7FF468
:100BE00025AF104619462CE795EA0C0F06D152EABC
:100BF00003353FF4FDAE1046194622E750EA4106A0
:100C000018BF52EA43067FF4C5AE50EA41047FF4B0
:100C10000DAF52EA43057FF4EBAE12E74FF0FF3C15
:100C200006E000BF4FF0010C02E000BF4FF0010CE6
:100C30004DF804CD4FEA410C7FEA6C5C4FEA430C5F
:100C400018BF7FEA6C5C1BD001B050EA410C0CBFAE
:100C500052EA430C91EA030F02BF90EA020F002010
:100C6000704710F1000F91EA030F58BF994208BF77
:100C700090422CBFD8176FEAE37040F00100704734
:100C80004FEA410C7FEA6C5C02D150EA013C07D18B
:100C90004FEA430C7FEA6C5CD6D152EA033CD3D0D6
:100CA0005DF8040B704700BF8446104662468C46D0
:100CB0001946634600E000BF01B5FFF7B7FF002803
:100CC00048BF10F1000F01BD4DF808EDFFF7F4FF2C
:100CD0000CBF012000205DF808FB00BF4DF808EDB7
:100CE000FFF7EAFF34BF012000205DF808FB00BFDA
:100CF0004DF808EDFFF7E0FF94BF012000205DF8FC
:100D000008FB00BF4DF808EDFFF7CEFF94BF0120B0
:100D100000205DF808FB00BF4DF808EDFFF7C4FFA9
:100D200034BF012000205DF808FB00BF4FEA4102FC
:100D300012F5001215D211D56FF47873B3EB62522D
:100D400012D94FEAC12343F0004343EA505311F054
:100D5000004F23FA02F018BF404270474FF00000E6
:100D6000704750EA013005D111F0004008BF6FF024
:100D7000004070474FF00000704700BF4FEA41024B
:100D8000B2F1E04324BFB3F5001CDCF1FE5C0DD9E9
:100D900001F0004C4FEAC0024CEA5070B2F1004F33
:100DA00040EB830008BF20F00100704711F0804F36
:100DB00021D113F13872BCBF01F00040704741F4FB
:100DC00080114FEA5252C2F11802C2F1200C10FAFF
:100DD0000CF320FA02F018BF40F001004FEAC123E3
:100DE0004FEAD32303FA0CFC40EA0C0023FA02F387
:100DF0004FEA4303CCE77FEA625307D150EA01335D
:100E00001EBF4FF0FE4040F44000704701F000402C
:100E100040F0FE4040F40000704700BF80F000400A
:100E200002E000BF81F0004142001FBF5FEA4103C2
:100E300092EA030F7FEA226C7FEA236C6AD04FEAC2
:100E40001262D2EB1363C1BFD21841404840414007
:100E5000B8BF5B42192B88BF704710F0004F40F4B9
:100E6000000020F07F4018BF404211F0004F41F4D5
:100E7000000121F07F4118BF494292EA030F3FD0A1
:100E8000A2F1010241FA03FC10EB0C00C3F12003B4
:100E900001FA03F100F0004302D5494260EB400043
:100EA000B0F5000F13D3B0F1807F06D340084FEAAE
:100EB000310102F10102FE2A51D2B1F1004F40EBA3
:100EC000C25008BF20F0010040EA0300704749000B
:100ED00040EB0000013A28BFB0F5000FEDD2B0FAA8
:100EE00080FCACF1080CB2EB0C0200FA0CF0AABFCB
:100EF00000EBC25052421843BCBFD0401843704769
:100F000092F0000F81F4000106BF80F4000001326E
:100F1000013BB5E74FEA41037FEA226C18BF7FEA45
:100F2000236C21D092EA030F04D092F0000F08BF87
:100F30000846704790EA010F1CBF0020704712F06E
:100F40007F4F04D1400028BF40F00040704712F1AD
:100F500000723CBF00F50000704700F0004343F012
:100F6000FE4040F4000070477FEA226216BF084648
:100F70007FEA23630146420206BF5FEA412390EA0B
:100F8000010F40F4800070474FF0000304E000BF01
:100F900010F0004348BF40425FEA000C08BF7047B2
:100FA00043F0964301464FF000001CE050EA010276
:100FB00008BF70474FF000030AE000BF50EA01028B
:100FC00008BF704711F0004302D5404261EB410178
:100FD0005FEA010C02BF84460146002043F0B6439D
:100FE00008BFA3F18053A3F50003BCFA8CF2083AC2
:100FF000A3EBC25310DB01FA02FC634400FA02FCCB
:10100000C2F12002BCF1004F20FA02F243EB0200D1
:1010100008BF20F00100704702F1200201FA02FC33
:10102000C2F1200250EA4C0021FA02F243EB020026
:1010300008BF20EADC7070474FF0FF0C1CEAD0526A
:101040001EBF1CEAD15392EA0C0F93EA0C0F6FD02B
:101050001A4480EA010C400218BF5FEA41211ED009
:101060004FF0006343EA501043EA5111A0FB0131F5
:101070000CF00040B1F5000F3EBF490041EAD371CA
:101080005B0040EA010062F17F02FD2A1DD8B3F146
:10109000004F40EBC25008BF20F00100704790F0B5
:1010A000000F0CF0004C08BF49024CEA502040EA07
:1010B00051207F3AC2BFD2F1FF0340EAC2507047CD
:1010C00040F400004FF00003013A5DDC12F1190F0B
:1010D000DCBF00F000407047C2F10002410021FA7D
:1010E00002F1C2F1200200FA02FC5FEA310040F195
:1010F000000053EA4C0308BF20EADC70704792F00E
:10110000000F00F0004C02BF400010F4000F013A45
:10111000F9D040EA0C0093F0000F01F0004C02BF40
:10112000490011F4000F013BF9D041EA0C018FE7AF
:101130000CEAD15392EA0C0F18BF93EA0C0F0AD0B5
:1011400030F0004C18BF31F0004CD8D180EA0100DB
:1011500000F00040704790F0000F17BF90F0004F74
:10116000084691F0000F91F0004F14D092EA0C0F56
:1011700001D142020FD193EA0C0F03D14B0218BFE9
:10118000084608D180EA010000F0004040F0FE402F
:1011900040F40000704740F0FE4040F440007047CB
:1011A0004FF0FF0C1CEAD0521EBF1CEAD15392EA4A
:1011B0000C0F93EA0C0F69D0A2EB030280EA010C3A
:1011C00049024FEA402037D04FF0805343EA1111D3
:1011D00043EA10130CF000408B4238BF5B0042F131
:1011E0007D024FF4000C8B4224BF5B1A40EA0C00D6
:1011F000B3EB510F24BFA3EB510340EA5C00B3EB08
:10120000910F24BFA3EB910340EA9C00B3EBD10FF5
:1012100024BFA3EBD10340EADC001B0118BF5FEA47
:101220001C1CE0D1FD2A3FF650AF8B4240EBC25070
:1012300008BF20F0010070470CF0004C4CEA502031
:101240007F32C2BFD2F1FF0340EAC250704740F480
:1012500000004FF00003013A37E792F0000F00F072
:10126000004C02BF400010F4000F013AF9D040EAF0
:101270000C0093F0000F01F0004C02BF490011F484
:10128000000F013BF9D041EA0C0195E70CEAD1537C
:1012900092EA0C0F08D142027FF47DAF93EA0C0F63
:1012A0007FF470AF084676E793EA0C0F04D14B0247
:1012B0003FF44CAF08466EE730F0004C18BF31F0F9
:1012C000004CCAD130F000427FF45CAF31F00043F3
:1012D0007FF43CAF5FE700BF4FF0FF3C06E000BF8C
:1012E0004FF0010C02E000BF4FF0010C4DF804CDAF
:1012F0004FEA40024FEA41037FEA226C18BF7FEABF
:10130000236C11D001B052EA530C18BF90EA010FC0
:1013100058BFB2EB030088BFC81738BF6FEAE1704F
:1013200018BF40F0010070477FEA226C02D15FEAEB
:10133000402C05D17FEA236CE4D15FEA412CE1D057
:101340005DF8040B704700BF844608466146FFE71E
:101350000FB5FFF7C9FF002848BF10F1000F0FBD00
:101360004DF808EDFFF7F4FF0CBF012000205DF8F9
:1013700008FB00BF4DF808EDFFF7EAFF34BF01207E
:1013800000205DF808FB00BF4DF808EDFFF7E0FF17
:1013900094BF012000205DF808FB00BF4DF808ED68
:1013A000FFF7D2FF94BF012000205DF808FB00BFCB
:1013B0004DF808EDFFF7C8FF34BF012000205DF8AD
:1013C00008FB00BF4FEA4002B2F1FE4F0FD34FF0CF
:1013D0009E03B3EB12620DD94FEA002343F00043A2
:1013E00010F0004F23FA02F018BF404270474FF050
:1013F0000000704712F1610F01D1420205D110F0D7
:10140000004008BF6FF0004070474FF00000704789
:1014100042000ED2B2F1FE4F0BD34FF09E03B3EB5E
:10142000126209D44FEA002343F0004323FA02F08A
:1014300070474FF00000704712F1610F01D1420276
:1014400002D14FF0FF3070474FF00000704700BFEF
:101450007BB972B90029BEBF00204FF0004106E001
:1014600008BF00281CBF6FF000414FF0FF3000F0B4
:1014700077B8ADF1080C6DE904CE002909DB002B2B
:101480001ADB00F0CFF8DDF804E0DDE9022304B058
:101490007047404261EB4101002B1BDB00F0C2F8BA
:1014A000DDF804E0DDE9022304B0404261EB4101D4
:1014B000524263EB43037047524263EB430300F035
:1014C000B1F8DDF804E0DDE9022304B0404261EB4D
:1014D00041017047524263EB430300F0A3F8DDF88B
:1014E00004E0DDE9022304B0524263EB430370479A
:1014F00053B94AB9002908BF00281CBF4FF0FF317B
:101500004FF0FF3000F02CB8ADF1080C6DE904CEBF
:1015100000F088F8DDF804E0DDE9022304B070474C
:10152000D0B5FFF711F900220B4B06460F46FFF727
:1015300063F900F017F80446FFF7E4F80022074BC0
:10154000FFF75AF902460B4630463946FEF79CFF34
:1015500000F008F82146D0BD0000F03D0000F04149
:10156000704700BF4A0011D212F5001211D20DD5FA
:101570006FF47873B3EB62520ED44FEAC12343F099
:10158000004343EA505323FA02F070474FF0000043
:10159000704750EA013002D14FF0FF3070474FF0F2
:1015A0000000704710F8012B11F8013B012A28BFF9
:1015B0009A42F7D0D01A7047034611F8012B03F86E
:1015C000012B002AF9D17047034613F8012B002A9A
:1015D000FBD1181A01387047430803F05533C01A7D
:1015E00000F03333800800F0333018444FF00133FB
:1015F00000EB101000F00F305843000E704710B58C
:1016000000210446FFF7B6FE20B92046BDE8104091
:10161000FFF786BF04F10040FFF782FF404261EB15
:10162000410110BD2DE9F0478C468E46089E1546B7
:1016300004461946002B40F0D080724547D9B2FAD3
:1016400082F74FB1C7F120030EFA07FCBD40BC4042
:1016500020FA03F343EA0C0C4FEA154EA8B2230C10
:10166000BCFBFEF80EFB18CC08FB00F943EA0C4368
:10167000994528D9EB1808F1FF3204D2994502D9CF
:10168000A8F102022B44A3EB0903A4B2B3FBFEFCB6
:101690000EFB1C330CFB00F044EA0344A04214D9B7
:1016A0002C190CF1FF3304D2A04202D9ACF1020391
:1016B0002C44241A43EA02401EB1FC40002334604B
:1016C0007360BDE8F0874246DDE76346F1E7002A34
:1016D00079D0B2FA82F3002B3FD01946C1F1200332
:1016E00002FA01F500FA01F42EFA03F20EFA01FEF5
:1016F00020FA03F3AFB243EA0E034FEA154EB2FBF2
:10170000FEFC0EFB1C201A0C0CFB07F842EA004200
:1017100090455AD9AA180CF1FF3004D2904502D94D
:10172000ACF102002A44A2EB08029BB2B2FBFEFC21
:101730000EFB1C220CFB07F743EA02439F4246D9EB
:10174000EB180CF1FF3204D29F4202D9ACF1020235
:101750002B44DB1B42EA004202E0AEEB0203012213
:101760004FEA154EAFB2200CB3FBFEFC0EFB1C3350
:101770000CFB07F840EA034398452AD9EB180CF113
:10178000FF3004D2984502D9ACF102002B44A3EB00
:101790000803A4B2B3FBFEFC0EFB1C330CFB07F7E3
:1017A00044EA0344A74216D92C190CF1FF3304D2A2
:1017B000A74202D9ACF102032C44E41B43EA0040E7
:1017C0000F46114678E71F2188E76046ABE762467F
:1017D000BFE76046DBE76346EFE7734506D916B916
:1017E000002108466DE7C6E9000EF9E7B3FA83F772
:1017F00087B9734501D3824207D8841A6EEB03037D
:1018000001209C461EB900215BE73846FAE7C6E98D
:10181000004CF8E7C7F1200CBB4000FA07F422FAAD
:101820000CF520FA0CF1BA401D432EFA0CF30EFA17
:1018300007FE4FEA154941EA0E011FFA85FEB3FB88
:10184000F9F809FB18300B0C08FB0EFA43EA0043C9
:101850009A4540D9EB1808F1FF3004D29A4502D9D5
:10186000A8F102002B44A3EB0A0389B2B3FBF9F8F9
:1018700009FB183308FB0EFE41EA03418E452CD9C3
:10188000691808F1FF3304D28E4502D9A8F102038A
:10189000294443EA0040A1EB0E01A0FB0298414518
:1018A000CE46434602D306D14C4504D20138B9EBAB
:1018B000020E68EB0503002EA5D0B4EB0E0261EB1F
:1018C000030101FA0CFC22FA07F3F9404CEA030386
:1018D000C6E9003197E74046C5E74346D9E700002F
:1018E00070B592B00C4638F018FD30B920462A4940
:1018F00012B0BDE87040FFF75FBE07A838F023FDC7
:101900009DF81C300AA8022B96BF244A244D52F899
:10191000235038F010FDBDF81E6008B3DDE90C015E
:10192000FEF73CFF1AA3D3E90023FFF78FF8CDE9B8
:101930000401DDE90A01FEF731FF15A3D3E9002315
:10194000FFF784F8089BCDE90201CDE900634FF46D
:1019500080712B462046134A35F0ACF912B070BDA9
:10196000099B4BB1CDE900634FF480712B462046B3
:101970000D4A35F09FF9F1E72B464FF48071204670
:101980000A4A009635F096F9E8E700BFAFF3008009
:101990000000000065CDCD4195C904009C8E040077
:1019A00076E10400A1C70400D3C70400F7C7040010
:1019B0002DE9F04F8DB002AFD7E91456012D9246B4
:1019C00076F10002804689469B4630DBC7F804D09A
:1019D00088B002AC644904F1140038F04FFF0222D1
:1019E00007F1080104F11800C7E9025638F01DFF9D
:1019F00004232246BB6042F8103F00234FF40351FA
:101A00005A480FF03BF92946D7F804D0584838F027
:101A100037FC01200EF010F9564BD3E8EF2FC3E846
:101A2000E15F0029F9D14FF4007005F0DBFF524C63
:101A30004246D4E950014B46FFF746F938B1D4E9A4
:101A4000520152465B46FFF73FF9002866D14946EE
:101A5000C4E95089C4E952AB4046FFF767F95946DB
:101A600006465046FFF762F9C7F804D08AB005462B
:101A700002AC424904F1140038F000FF012207F1E2
:101A8000080104F11800BE6038F0CFFE3046FEF7C2
:101A900049FE02460B4640464946FEF7F5FC30A398
:101AA000D3E90023FEF7A8FEFFF740F90028B8BFEE
:101AB0004042012207F10801B86004F11C0038F02F
:101AC000B4FE04F12000BD6038F0AFFE2846FEF7FA
:101AD00029FE02460B4650465946FEF7D5FC20A388
:101AE000D3E90023FEF788FEFFF720F90028B8BFEE
:101AF0004042B860012207F1080104F1240038F0E7
:101B000094FE06232246BB6042F8103F00234FF4A8
:101B1000435116480FF0B2F8D7F804D007F1080087
:101B200038F0FFFB0022164B50465946FEF764FE84
:101B3000FFF7FCF800220446114B40464946FEF7E9
:101B40005BFEFFF7F3F8BB69397F02460093012083
:101B500023460DF0E3FF2C37BD46BDE8F08F00BFF4
:101B60000000000080842E41D9CA0400A88304002C
:101B7000606802208068022068700120F5CA0400B5
:101B800000408F400000000030B50D46194640F27D
:101B900001138FB00446CDE90135104610A3D3E9F7
:101BA0000023FEF729FEFFF7C1F80DA3D3E90023B8
:101BB0000390DDE91201FEF71FFEFFF7B7F80023DF
:101BC000049006A901A8059338F0D4FB06AA0346A1
:101BD00004F50171204637F085FB0FB030BD00BF22
:101BE0000000000080842E412DE9F04F00F5B03751
:101BF000D7F88C020C4616469BB000B180474FF0D8
:101C00000A087423B0FBF8F001256370B207C0F333
:101C100007232570A370E07040F1CF8038F07BFB84
:101C2000002800F0978008A838F085FB002800F015
:101C30009180DDE908018823854A257163710023BD
:101C4000FFF706FC00230546DDE90A01804AFFF79D
:101C5000FFFB0C9BC5F3074C93FBF8F3C5F3072779
:101C6000C0F30748C0F3072EC3F30742C3F30721AD
:101C7000EDB2C0B2DBB225720F2584F806C0E77161
:101C800084F8098084F80AE0E07222736173A37318
:101C9000730753D503A805F0EBF800283AD19DF857
:101CA0001C30002B00F08B800123635567236619DD
:101CB000684903987370FFF7BFF9FFF783FBEB1CCC
:101CC000C0F30722B2700435E0549DF81D306BB1AB
:101CD0000123682204996355631908465A70FFF777
:101CE000A3F8FFF795FBAE1CA05503359DF81E30F9
:101CF00083B10123635573236619737055490598A1
:101D0000FFF79AF9FFF784FBEB1CC0F30722B270D0
:101D10000435E05438F024FB80B108A838F022FBE9
:101D2000814658B94FF0020874224FF0750A4FF0FF
:101D3000800B9DF8603008AF4B454CDC38F0EBFA77
:101D400020B138F0EAFA08B138F0FCFA28461BB0A6
:101D5000BDE8F08F0022D7E950010023FEF7B4FF61
:101D600030B1D7E9520100220023FEF7ADFF20BBBE
:101D70000123237188236371D7E9500132A3D3E98A
:101D80000023FEF739FDFEF7D1FF2FA3D3E900238F
:101D90000546D7E95201FEF72FFDFEF7C7FF0022E7
:101DA000C5F3074CC5F30727C0F30748C0F3072E58
:101DB00011461346EDB2C0B25DE7042568E79DF811
:101DC0001F30002B81D001236355672366192149F9
:101DD000069873706FE7397B89B3661904F805803C
:101DE0001D49727038680193FFF726F9FFF710FB61
:101DF000C0F30721B170F070184986F80480786844
:101E000086F805A0FFF718F9FFF702FBC0F30721DA
:101E1000B171F07186F80880B86886F809B0FFF7EC
:101E2000F7FA742205F10B01C0F3072C08F1010841
:101E3000019B86F80AC00C3560545FFA88F809F1F6
:101E40000109103778E700BF000000000088C34098
:101E5000A0860100000020410000C84200007A4432
:101E60002DE9F04FE1B004460D46164604AF002AB6
:101E70004ED03AF042FC8146002840F0E08095F8D0
:101E8000008008F1FF33402B42D8DFE813F0470011
:101E90009C032804DA00D105E6055204A9043301A5
:101EA0006604CC043605D5015105B8013A034D034B
:101EB0008F03BC064F0272062406930625086D08A0
:101EC0009008CC08FA080309E401F6010F02200784
:101ED00044076307B3070007D3060C09E7093B0A69
:101EE000C009460641004100410041004100410057
:101EF0004D09A006790941009B0A2F0B7D02130CA6
:101F0000420B5C0B7F0BA30BB30BCC0A020B5B0CDD
:101F1000002007F5BA77BD46BDE8F08F072E01D83F
:101F200006217CE14FF0000804F5B03504F50033DC
:101F300085F8988204F5043683F8BC8FD6F8080734
:101F400018B13AF00BFDC6F808870023C6F80C3725
:101F5000C6F810370123204686F8F6393AF09EFB82
:101F600040F20513A7F8B83095F8643107F1BC06C4
:101F700087F8BA30162304F5097C87F8BB3004F5DE
:101F80000173324618685968083303C26345164620
:101F9000F7D1D5E95201CCA3D3E90023FEF72CFCFD
:101FA000FEF7C4FEC8A3D3E900230646D5E95001D5
:101FB000FEF722FCFEF7BAFE95F88F3195F8302235
:101FC00087F8E43095F8A031C7E9370687F8E5309F
:101FD00095F82F32D5F860019B0043EA021395F87B
:101FE0002E22BB49134387F8E63095F82D3205F5CC
:101FF0008E7587F8E730FFF71FF8FFF709FAB44945
:10200000C7F8E800686FFFF717F8FFF701FAB5F8AF
:1020100070301F21C7F8EC002846A7F8F03044F0D4
:10202000DBFE06460246294607F1F20044F04CFE6C
:1020300006F13A0207F1B801204639F0ADFE012061
:1020400067E704F5B03898F898320BB10421E6E060
:10205000042E3CD9681C39F0EBFCC8F8AC0204F53E
:10206000A032D2F8942BC8F8A02298F8762232B188
:1020700004F50433D3F83039003B18BF01230025A1
:102080002E4688F8A432D8F8A032AB4221DC0222D6
:1020900098F8A43287F8B82033441A0A87F8BA208F
:1020A0001A0C87F8B93087F8BB201B0E0522204692
:1020B00007F1B80187F8BC3039F06EFE0023C8F88C
:1020C0009C32C8F8A832012388F89832B7E718463E
:1020D000C3E707F1B80036F000FF2946204607F1B4
:1020E000B80239F065FB18B197F8F83003B1013642
:1020F0000135C8E7872E7FF613AF6B1C19462022E7
:102100002046994639F08BFA804607F1B80036F040
:10211000E4FE4B4607F1B80C05F1210E6246186843
:102120005968083303C273459446F7D195F82130B6
:1021300007F1FC0C87F8F83095F8223005F1640EB1
:1021400087F8F93095F8233087F8FA3005F1240341
:10215000624618685968083303C273459446F7D13C
:1021600007F1D80C05F1840E6246186859680833E7
:1021700003C273459446F7D10022184687F8F7202A
:1021800039F056FCC7E95122C7F83C01A06E03683C
:102190001B6898478F2EC7F8400113D905F18800B6
:1021A00039F046FCC7F8440105F18C0039F040FCD9
:1021B000932EC7F8480105D905F1900039F038FC95
:1021C000C7F840010023C7F84C3187F8FB30B8F15D
:1021D000000F0BD0B8224046B91844F075FD2046D8
:1021E00039F09DFD204639F0E8FD28E7204607F14B
:1021F000B80139F031FA0028F1D103210FE0202E87
:102200007FF68EAE013529462022204639F007FAA6
:10221000014618B1204639F033FA20B90221204690
:1022200039F0D6FD0BE704F5B03320222946D3F868
:10223000800238F020FDD2E7202E7FF671AE691CB7
:102240002022204639F0EBF901460028E6D020464E
:1022500039F0E1F9C3E7202E7FF662AE691C202237
:10226000204639F0DCF901460028D7D0032207F1D7
:10227000B80039F083FE0246DCE6012E3FF450AE92
:102280006B78272B3FF64CAEA06D03681B68984710
:10229000204639F00CFF2046697839F0BFFE00284F
:1022A0003FF4D4AE204639F002FFC8E6012E3FF4D9
:1022B00037AE95F80180B8F1270F3FF631AE412EC9
:1022C00008D90121ABE700BF0000000080842E4147
:1022D00000007A44312E7FF623AEAE1C07F1D903FD
:1022E00005F1220256F8041B964243F8041BF9D16B
:1022F0000021102207F1C90087F8F810323544F0A8
:1023000009FD07F1B90356F8042BAE4243F8042B3C
:10231000F9D14146204607F1B80208F013FA002827
:102320003FF47CAF204639F00FFD5BE70C2304F54A
:10233000B035D5F88C0287F8B83000B1804787F8FF
:10234000B900000A87F8BA00D5F8800207F08EFEBF
:10235000030A87F8BB0087F8BC30030C000E87F82F
:10236000BE00D5F8800287F8BD3007F09BFE030A57
:1023700087F8C030030C87F8BF0087F8C130000E23
:102380000B2287F8C20055E6012E3FF4C9AD6B78E9
:102390004BBB1823A7F8B83004F5B033D3F88C0240
:1023A00000B18047A7F8BA00A06D03681B68984782
:1023B0004FF47A73B0FBF3F0002387F8BF30B4F822
:1023C0006030A7F8BC00E56D000C87F8BE00A7F8E8
:1023D000C0302B68A06D1E6903681B6898470146D2
:1023E0002846B047CCE7012B36D14FF48C73606D93
:1023F000A7F8B8300368DB699847A7F8BA00606DA2
:1024000003689B6B9847FEF7DDFF87F8BC00606DA3
:102410000368DB6B98474FF08141FEF70DFEFEF736
:10242000D1FF4FF47A7163690022B3FBF1F3A7F88F
:10243000BE301B0C87F8C030A36987F8C120B3FBFE
:10244000F1F3A7F8C2301B0C87F8C52087F8BD0050
:102450000E2287F8C430EDE5022B7FF461AD4FF416
:102460000673626CA7F8B830A36CE06B9D18216C02
:10247000A7F8BA504FEA15492D0E87F8BD504518F8
:1024800087F8BC90A7F8BE504FEA15492D0E87F883
:10249000C150050C000E87F8C500080C090E87F81E
:1024A000C910B4F83C80110CB4F840E0B4F844C052
:1024B000B4F84860120E87F8C80087F8CD20606D28
:1024C0001A0C1B0E87F8D02087F8C090A7F8C2809E
:1024D00087F8C450A7F8C6E0A7F8CAC087F8CC10A0
:1024E000A7F8CE6087F8D1300368DB6D9847030CFE
:1024F000A7F8D200000E1E2287F8D43087F8D50046
:1025000098E5202E7FF60CAD691C2022204639F07C
:1025100086F8014600283FF481AE204638F035FFAA
:1025200000283FF47BAE5DE6202E29D804F5B030BC
:1025300090F8A03100F58E71C3B9204638F020FD27
:10254000054600283FF459AE037807F1B90143F07E
:10255000010303700B2387F8B83037F0C2F9064641
:102560002946204636F03CFB721C63E5D0E9522335
:10257000CDE90023D0E950232046FFF705FBDFE734
:10258000691C2022204639F04AF8014600283FF411
:1025900045AE0B23204607F1B90287F8B83038F072
:1025A00017FF00283FF452AD421C43E5622E7FF630
:1025B000B7AC721E2046D2B2691C38F012FF002858
:1025C0003FF4AEAC0BE60D2E40F28280A6F10D0278
:1025D000E81C39F02DFAA02A28BFA0224FF0000BEA
:1025E00007F1140605F10D017860304695F8019069
:1025F00095F802A03A6044F067FB3A68E91D06F8D6
:1026000002B02046062239F00AF80546002854D0C8
:10261000B9F1010F51D807F10C0807F11009C8F8FA
:1026200000B02ED1A06E38F049FC53460246294630
:102630002046CDE9006938F033FE064600283FF415
:10264000DCADD8F800309BB107F1B80036F045FC9E
:102650004FF0000A04F5A03BDBF8943B53451ADC2D
:102660004FF0FF3A52462046D8F8001039F0A3FD4B
:10267000D9F80030D8F80020F1B2204639F0B5FB87
:10268000DDE4CDE9018900960146534620467A688B
:1026900007F0A6FFD1E75146204607F1B80239F00E
:1026A00087F838B12022294607F1B80044F041FBF1
:1026B0000028D7D00AF1010ACEE702214B46CE4AC4
:1026C000CE483BF021F8002D0CBF41460121A6E584
:1026D0003346CB4A0221C9483BF016F820E4072EC6
:1026E0007FF61EAC95F80190B9F1000F7FF4E9ADCB
:1026F000E81C39F09DF9A978804607F1B802204618
:1027000039F02FF800283FF489AD073E073504F56E
:10271000B03341462046CDF808900196009503F568
:102720008E7307F1B80207F0BFFF00283FF48EACAC
:1027300058E5012E07D095F8019009F1FF35D5F144
:10274000000949EB0509236849462046D3F8F830CB
:10275000984700283FF451AD44E504F5003696F85B
:10276000BC3F4BB1204639F013FD0023B6F8B80F3B
:1027700086F8BC3F0DF096F907F114084246204652
:1027800007F1B80139F0E7FC054660B120467A69E7
:1027900007F1B80139F000FB00283FF450AC0123E9
:1027A00086F8BC3F4BE40A230122204607F11001C2
:1027B0003B7439F0F1FA00283FF441AC0CF052FEC2
:1027C00004F5043383F8F659D6F8B83F002B7FF7A9
:1027D00036AC2B462A468321204639F025FB2EE4D1
:1027E000012E3FF4FFAC013E1F2E28BF1F2604F52B
:1027F000B03808F58E793246691C484644F064FAD0
:102800000023264406F5B03686F81C31D8F880023D
:1028100008F58C7106F068FE48460CF001FE204673
:1028200039F02CFFDEE40A2E7FF67AAB681C39F013
:10283000FFF80B2E034656D0EE7A002E53D0714A85
:1028400090427FF66DAB013290420AD06E4A9042C0
:102850007FF666AB0132904203D06C4A90427FF41F
:102860005FAB681D39F0E4F86949A0F5DA52183A0F
:102870008A4280463FF654AB95F809A0AAF10502BA
:10288000072A3FF64DAB95F80A90A9F10502032AF5
:102890003FF646AB1846FEF777FB5E49FEF780FC35
:1028A00004F5B035C5F860014046FEF76DFB5949A7
:1028B000FEF776FC85F88CA1C5F8900185F88D911E
:1028C000D5F8800285F83A6205F58C7106F00CFEA9
:1028D000D5F8903203B19847032133464E4A474812
:1028E0003AF012FF7EE44D49A3F51232A2F5F872D8
:1028F0008A423FF615AB0026B3E7012E3FF410AB3A
:102900006A7802F10903DBB21F2B3FF609AB04F52D
:10291000B035D5F8800285F8642105F58C7106F094
:10292000E3FDD5F89032002B3FF45CAC984759E4B6
:10293000082E7FF6F5AA681C39F07AF8384B394A28
:102940000344934206463FF6EBAA681D39F070F83F
:10295000354B05469842FFF6E3AA90423FF7E0AABE
:102960003046FDF7DFFE22A3D3E90023FEF76EF821
:1029700004F5B038C8E950012846FDF7D3FE1CA382
:10298000D3E90023FEF762F8C8E95201D8F88002C3
:1029900008F58C7106F0A8FD98F8A091E8468AB079
:1029A00004AA224902F1140039F0DBF807F1B8015A
:1029B0004046C7F8B86039F0D1F802F11C00C7F8FA
:1029C000B85039F0CBF802F12000C7F8B89039F0D0
:1029D000C5F80523C7F8B83042F8103F00234FF47C
:1029E000235106480EF04AF9C546FFF7FBBB00BF6E
:1029F0000000000080842E414ADB04008083040034
:102A000089DB0400679B060076440D00F0010E0090
:102A1000C885070000007A44BDDB0400B0DB23005A
:102A2000804A5D050095BA0A006B45F5E0DB0400BD
:102A30000923A06E87F8B83003681B689847030A1B
:102A400087F8B90087F8BA30030C000E052287F822
:102A5000BB3087F8BC00FFF7EDBA042E7FF660AA02
:102A600037F067FC38B1204639F0A7F9204639F035
:102A700015FEFFF7E4BA681C38F0DAFF0546A06ED1
:102A800003681B689847A8423FF64AAAA06E2946E9
:102A900003685B68984702200DF0CEF8284637F0AF
:102AA00066FE40F0EDFF4FF47A75A0FB050647F691
:102AB0001222002305FB0161FEF71AFD4FF47A7222
:102AC0000023FEF7C5FC014604F5053000F54E7005
:102AD00037F0EAFDC7E7012E3FF422AA6A7804F531
:102AE000043383F8F828B74B04F5B035B64AC7F875
:102AF000B830D5F83432B549002B08BF134607F17A
:102B0000C0004822C7F8BC3044F0DEF8B5F83A32CD
:102B10005222A7F80831FFF78DBA172304F5B03514
:102B2000AB49D5F8680187F8B830FEF785FAFEF7AB
:102B30006FFC030A87F8B90087F8BA30030C000E5F
:102B4000A34987F8BC00D5F8180187F8BB30FEF719
:102B500073FAFEF75DFC030A87F8BD0087F8BE3004
:102B6000030C000E092287F8BF3087F8C000FFF77A
:102B700061BA082E7FF6D4A9681C38F059FFFEF719
:102B800003FA9349FEF70CFB04F5B036C6F868016A
:102B9000681D38F04DFFFEF7F7F98D49FEF700FB91
:102BA000C6F81801D6F8800206F58C7106F09CFC78
:102BB000FFF718BB0E23402207F1B90104F501709D
:102BC00087F8B83036F0EDF94122FFF733BA052E19
:102BD0007FF6A6A905227F49681C44F0AAF80028C0
:102BE0007FF49EA97C4803217C4A3AF084FD04F5D9
:102BF000B033D3F8800206F0B3FB204639F0DDF89D
:102C000001200DF09BFC062E7FF68AA9062274494E
:102C1000681C44F08EF800287FF482A90321714AD1
:102C20006D483AF068FD204639F0A0F8204639F0AA
:102C3000AAF8E2E7012E3FF4D5AA6B7804F5B03884
:102C4000022E88F82D321DD0AB78032E03F003033B
:102C500088F82E32AB78C3F3810388F82F32AB7833
:102C6000C3F3011388F830320CD0EB7888F8A03128
:102C700003215D4A58483AF047FD042E02D02B79D3
:102C800088F88F31D8F8800208F58C718EE7042E11
:102C90007FF646A9D5F8015035B1544AA5F5C3339E
:102CA000A03B93423FF63CA904F5B036D6F880022B
:102CB000C6F8345206F58C7106F016FCD6F894323C
:102CC000002B3FF48FAA28469847FFF78BBA04F5EC
:102CD0000435D5F8080720B139F040FE0023C5F8C7
:102CE000083700264FF40050C5F80C67C5F8106788
:102CF00039F032FEC5F8080700283FF4A7A94FF4C1
:102D00000053C5F810373A4B0622C7F8B830A7F879
:102D1000BC60FFF78FB904F50438D8F8080700281D
:102D20003FF494A9012E3FF491A9D8F80C37D8F8B4
:102D30001027013EF11891423FF65FAA184432462F
:102D4000691C43F0C1FFD8F80C373344C8F80C377E
:102D5000FFF748BA04F50435D5F80827002A3FF4F0
:102D600075A9D5F80C37002B3FF470A907F11401B1
:102D700004F5017036F039F9142307F1B90687F824
:102D8000B83007F1540CFB181A4603CA624530608C
:102D90007160134606F10806F6D14122204607F17C
:102DA000B80138F0F9FFD5F8080708B139F0D6FDB9
:102DB0000023C5F80837C5F80C37C5F81037FFF7FA
:102DC0003EB900BF0D0DE12840E20100F08404008F
:102DD00000007A4449290500808304000BDC0400CC
:102DE000E0DD040023DC040034DC04009FBB0D00A4
:102DF00013000020A6F10B03B12B54D86B7A0A3EC6
:102E00005FFA86F903F0030149FA01FABAF1400FBB
:102E10003FF786A801228A40013A12EA09067FF4A8
:102E20007FA8681C38F004FE8046681D38F000FE5C
:102E300041460246204636F0D9FC834600283FF43E
:102E4000DCA9014605F10A024B462046009636F001
:102E500080FB9BF80430606DBBF8021019440368D6
:102E600002319B68984723680146D3F8C0305FFA67
:102E70008AF2204698470623A7F8B8304FEA18434D
:102E8000A7F8BA8087F8BC304FEA1868030CA7F897
:102E9000BE00000E0A2287F8BD8087F8C03087F890
:102EA000C100FFF7C7B8082E7FF69CA9681C38F050
:102EB000BFFD0146681D38F0BBFD002302462046D9
:102EC00036F094FC014600283FF4C0A800222046BA
:102ED00036F082FBFFF786B9402E7FF621A8013538
:102EE000284601F011FD00283FF41AA807F1B800A8
:102EF00036F005F82946402207F1B80004F5B03550
:102F000036F025F8D5F8800207F1B80106F0AAFAE4
:102F100000283FF49BA895F87682B8F1000F02D004
:102F2000204639F0E2FB0026602207F1B80104F5E3
:102F3000017043F0C9FE204608F0D2FE04F50433C8
:102F4000C3F83069B8F1000F02D0204639F096FB83
:102F500004F5A033C3F8946BD5F8800205F58A71A7
:102F600006F0B4FDFFF73EB9052E7EF6D9AF95F910
:102F7000013095F80180002BFFF6A3A908F10503A5
:102F8000B342BFF69EA908F10201721A20462944F5
:102F900036F017FC014600283FF42FA900232046F5
:102FA0000093AA1C434636F0D4FAFFF71BB9202E33
:102FB0007EF6B6AF691C2022204638F030FB213E59
:102FC0003F2E28BF3F2605F12101804600253246CD
:102FD00007F1B80043F078FE06F5B47307F1080274
:102FE0009E1806F8B85CB8F1000F3FF417A907F176
:102FF000140633464146204607F1B80238F018FA65
:1030000000283FF4FAA804F50432C2F82457C2F8A5
:103010002057C2F81C57C2F818577B69D2F81427FA
:10302000C1B2FFF72ABB202E7EF67AAF691C2022A0
:10303000204638F0F4FA054600283FF4EFA807F1DF
:10304000B80307F1140601460093012233462046D7
:1030500038F0AAFA00283EF4F9AF002204F5043350
:10306000C3F81827C3F82427C3F82027C3F81C2760
:10307000C3F814272A68C3F81827D7F8B8307A6934
:10308000CEE7202E7EF64CAF2046691C38F00CFCB3
:10309000FFF746BA202E7FF6A5A82046691C38F017
:1030A000E1FBFFF79FB8042E14D18B23A7F8B830AB
:1030B000D4F804320722C7F8BA30B4F808322046F0
:1030C00007F1C001A7F8BE30FEF78EFD00F108023F
:1030D000FEF7B0BF232E7EF623AF291D2022204607
:1030E00038F09DFA014600283FF498A807F1B8038C
:1030F00007F11406009303223346204638F054FAB1
:1031000000283EF4A3AF002204F50435C5F82427B7
:10311000C5F82027C5F81827C5F814277A69C5F817
:103120001C27D7F8B8307BE7212E7EF6F9AE691C54
:103130002022204638F073FA014600283FF46EA89A
:10314000A6F1210307F1B80207F114060192204607
:103150000096DBB205F1210238F0F1F900283EF4C7
:1031600075AF002204F50433C3F82027C3F81C27E9
:10317000C3F81827C3F814277A69C3F82427D0E7BF
:10318000212E7EF6CDAE6E78002E7EF4C9AEA91C3F
:103190002022204638F043FA054600283FF43EA896
:1031A0004FF60363606EA7F8B830A7F8BA6087F8E7
:1031B000BC60036804221B6807F1BD019847FF2328
:1031C00007F1140807F1100995F842A0294685F87F
:1031D000423020460923CDF80480CDF8009007F155
:1031E000B80238F0ACF985F842A000283EF42EAFC2
:1031F0003A6904F50433C3F82467C3F81C67C3F8BD
:103200001867C3F81467C3F820277B6908E7082EFE
:103210007EF686AE07222046A91C39F0DCFA00288B
:103220003EF4FCAF162387F8B830836A00F12C0116
:103230001A0A87F8B93087F8BA201A0C1B0E87F8DB
:10324000BB2087F8BC30C379402207F1BE0087F865
:10325000BD3036F0F2FA821DFEF7ECBE152387F87A
:10326000B83037F058F870B337F057F83F210346BD
:10327000BD4A07F1B90033F01DFD07F1BE0537F077
:1032800054F807F1F806034610B3A6EB0508B9F1A8
:10329000000F07D1B8F1000F04D02C2208F1FF383D
:1032A00005F8012B41462846B04A33F003FD0028BB
:1032B0000EDD40450CD20544761B6EB12C23013E39
:1032C00005F8013B08E04FF0010907F1B905D6E721
:1032D000761BB9F1000FF0D004F5B03393F8283223
:1032E0003146003B18BF01232846A14A33F0E2FCD7
:1032F000002802DDB04238BF2D1807F1B8016A1A64
:10330000FEF79ABE032E7EF60BAE013E3F2E28BF7F
:103310003F264FF000083246691C07F1B80043F021
:10332000D3FC06F5B47307F108029E183A2106F89B
:10333000B88C07F1B80043F00CFD054600283EF4B8
:10334000EFAD80F800808B4907F1B800FEF72AF94D
:1033500080B96D78A5F1310045424541284636F0E7
:10336000DFFF04F5B03383F89A51D3F8800203F5F8
:103370008C711BE4804907F1B800FEF713F978B9A6
:10338000681C43F0D2FC7D4B421E9A4205463EF635
:10339000C7AD36F0CDFF04F5B033C3F89C51E4E778
:1033A000774907F1B800FEF7FDF800287EF4B8ADC4
:1033B0006A7804F5B033A2F131014A424A4183F8F8
:1033C0002822D2E7012E3EF4ABAD6978C1B904F5ED
:1033D0000630112E00F1F9000ED9AB1C123553F84E
:1033E000042BAB4240F8042BF9D1002204F504333E
:1033F00083F80929FEF7F6BE102243F08BFCF4E7B0
:10340000022E7EF48DAD01297EF48AAD04F50433DD
:1034100004F5063083F8091910220021F93043F031
:1034200079FCFEF7DFBE2F2E24D905F101091F21FB
:10343000484643F0D1FC431E1D2B80463EF670AD3E
:1034400004F5B13606F13F0318461F22002143F070
:1034500061FC4246494643F037FC5E3605F12003E5
:10346000303553F8042BAB4246F8042BF9D104F560
:10347000B0337AE704F5B1351F22002105F13F0092
:1034800043F048FC1022002105F15E0043F042FCAD
:10349000EDE71C2387F8B83004F5B03393F83F32DA
:1034A0000BB304F5B13303F13F0207F1B90103F1A6
:1034B0005B0052F8045B824241F8045BF9D110884A
:1034C00007F1D806088092788A7003F15E026E33A5
:1034D000354610685168083203C59A422E46F7D126
:1034E0003022FEF7A7BD0122FEF7A4BD012E3EF457
:1034F00017AD95F90130002BBEF612AD691C2046C0
:10350000721E36F011F8014600287FF4DFACFEF79A
:1035100074BE012E3EF466AE6B7804F5B038022E10
:1035200088F8393205D0AA78402A28BF402288F886
:103530003C2298F83C22032100921248124A3AF0A9
:10354000EDF8FFF79FBB192387F8B83004F5B033C7
:1035500093F8392293F83C3287F8B92087F8BA30CB
:103560000322FEF767BD00BF5BDC040062DC0400E1
:1035700072DC040096C4040082DC04007F51010068
:103580008FDC0400808304009CDC04001A237E4945
:1035900007F1B90087F8B83038F042FA7A4907F1F4
:1035A000BD0038F03DFA794907F1C10038F038FA2A
:1035B000764907F1C50038F033FA754907F1C900BB
:1035C00038F02EFA724907F1CD0038F029FA1922A5
:1035D000FEF730BD022E7EF6A3AC6B78002B7EF496
:1035E0009FACAA78022A3EF69BAC04F5B03383F870
:1035F0003B22BAE6042E7EF693AC95F802906B78E7
:1036000048467B6036F009F920BBB9F1FF0F36D18F
:103610000320834615F800A00BF1020B28445E45F9
:1036200090F801807968204607F1B80294BF00261F
:10363000A6EB0B0638F095F800283EF4EFAD5AEAF9
:1036400008223EF46DACA72E26DDA723514A009335
:1036500033460EE0B9F1FF0FDAD04FEA991209F0C4
:103660003F0302FB033305339E420CD200933346E3
:10367000494A022149483AF051F8FEF751BC484AFC
:103680004B46FFF727B84B46F21EE91C07F1140022
:1036900036F0D3F80330BCE75D44CDE900254B4656
:1036A0002046029607F1140207F1B80137F033FE05
:1036B000FFF74FB8212E7EF633AC05F101094946DC
:1036C0002022204637F0ABFF07F1B808014621352C
:1036D00058BBB822404643F01DFB404635F0FDFB89
:1036E0004B46C446624618685968083303C2AB4269
:1036F0009446F7D10023A06E87F8FA3087F8F830A7
:1037000003681B6898474146C7F84001204637F0D8
:10371000A3FF00283EF471AD49462022204637F031
:103720007EFF014600283EF468ADA6F1210307F1B3
:1037300014062A462046CDF804800096DBB237F006
:10374000CAFE0BE5032E7EF6EBAB204635F034FACD
:10375000804600283EF451AD0146B31E2046AA1C07
:1037600095F8019000F002FD38B100234A46414629
:10377000204601F091F8FEF735BD4146204635F070
:103780002FFAFEF7CDBB00BF689B060077440D0003
:10379000F0010E0032DD0400FEDC04008083040032
:1037A000D2DC040000000000012208B50A4B0B48DF
:1037B0001A7007A3D3E900232FF04AFA084B1B78AD
:1037C0001BB1BDE808400BF089B808BDAFF300801D
:1037D000389C1C00000000008BB902203000002043
:1037E000A40B0020000000000022F0B585B01146B7
:1037F00040F6034002AF11F0EFFC044600285BD115
:1038000010F038FF214641F203003A1D11F0E4FCAC
:103810000446002850D17A68C54DD16805F1780377
:10382000D1F80100D1F8051003C310460FF034FAA7
:10383000214641F201003A1D11F0CEFC0446002859
:103840003AD17868C3685A7885F870205A88A5F804
:1038500072201A7985F87120B3F80720A5F8742032
:10386000B3F80530A5F876300FF016FA214641F28C
:1038700002003A1D11F0B0FC0446E8B9D7F804C0C4
:1038800005F18006DCF80C20531C413234461868E0
:103890005968083303C493422646F7D160460FF0B7
:1038A000FBF995F87C305B060AD40121A14AA248B5
:1038B0003AF0EDFE6FF0120420460C37BD46F0BD25
:1038C000002142F203003A1D11F086FC0446002854
:1038D000F2D17A68994BD168D1F80100D1F805107E
:1038E00003C310460FF0D8F9214642F202003A1DF8
:1038F00011F072FC04460028DED17E68F468B4F84A
:1039000001309AB292B1E27882B1A5F80431E3783D
:10391000032B06D00322022100928748884A39F0FF
:10392000FDFEE278874811463FF0E3FD30460FF098
:10393000B3F91F2395F87C60A5F8203116F0200616
:1039400019D14FF0FF304FF0FF3111F0ABF90446C1
:10395000002800F09C8102210C303AF022FB012368
:10396000214603704670324640F66D4011F034FC3B
:1039700004460028A0D195F89C301E0712D50021DE
:1039800042F21C003A1D11F027FC0446002893D196
:103990007868C368D3F80120D3F80530C5E9382327
:1039A0000FF07AF995F8D8305C0610D5002142F274
:1039B0002A003A1D11F010FC044600287FF47CAF69
:1039C0007868C3685B7885F822310FF065F94FF0AD
:1039D000FF304FF0FF3111F065F90646002800F086
:1039E000568108210C303AF0DCFA95F8D84040F2C4
:1039F000022314F0400F08BF03230246A0074CBF68
:103A000043F02C0343F00C03A10695F8D91048BFEE
:103A100043F0400311F0090F18BF43F4006304F0B2
:103A2000010443EA041000213AF065FE0022314609
:103A300042F2010011F0D0FB044600287FF43CAFB5
:103A400095F87C30B5F8041198065CD4C9B941F2F8
:103A500005003A1D11F0C0FB044600287FF42CAF8E
:103A6000B5F804317C684BB9E368B3F80120A5F8D8
:103A700004219A88334811463FF03BFD20460FF061
:103A80000BF94FF0FF304FF0FF3111F00BF9044606
:103A9000002800F0FC8008210C303AF082FA95F8FA
:103AA000D8300246D90738D44FF0005126483AF0B2
:103AB00022FE2146002240F6014011F08DFB044613
:103AC00000287FF4F9AE01463A1D4FF6014011F08F
:103AD00083FB00283ED01D4A022117483AF0D7FD4B
:103AE000EB79002B40F0C3803AF0F5FF0446002844
:103AF0007FF4E2AE13F0F4FE044600287FF4DCAE5F
:103B000011F0C6FAD8E60029BBD10121104A0A48B3
:103B10003AF0BDFD6FF00404CEE603A1D1E9000147
:103B2000C5E700BFAFF3008090880002008000204E
:103B3000F0000020AD09050018820400C801002033
:103B4000D1090500F8010020108800023A0A05009A
:103B5000170A05007B686E46DC688AB0B4F801304D
:103B6000042B96BF574A584952F8231002AAD36132
:103B70004FF4007355481384554BC2E9050142F8D0
:103B8000103F4FF4135153483AF095FDB4F801201B
:103B9000B546022AB4F8033049D1052B47D84E4A1E
:103BA00052F823106E468AB002AAD3614FF4007314
:103BB0004A481384464BC2E9050142F8103F4FF4CE
:103BC000135144483AF077FDB546637994F806C03E
:103BD000032B98BF424AB4F80760D4F809006C463A
:103BE0008CB094BF52F82310374902AAC2E9073CAF
:103BF0004FF40073DFF8ECE093853B4BC2E905E13D
:103C0000C2E909604FF4735142F8103F31483AF06D
:103C100052FDA54678680FF03FF800214FF60240AC
:103C20003A1D11F0D9FA044618B1304A54E7264932
:103C3000B8E77868C368B3F80130A5F8C1300FF071
:103C40002BF895F8C1305A077FF54AAF21464FF659
:103C500003403A1D11F0C0FA08B1254A3CE77868E4
:103C6000C3685B7885F8C0300FF016F838E72E7817
:103C7000002E7FF439AF95F8C1309B061FD54FF069
:103C8000FF304FF0FF3111F00DF8044610B96FF01E
:103C9000680411E606210C303AF083F9D5F80130BA
:103CA00021460360134B32469B8883804FF60640C3
:103CB00011F092FA044600283FF416AFFCE56FF0CD
:103CC0008504F9E58C94040076E104005E0A0500A1
:103CD000040000011882040074940400770A0500AF
:103CE000649404008F0A050007000001BC0A050067
:103CF000E50A0500F100002070B5144606460846A6
:103D0000FDF746F92146FDF797F9FDF778FC0EA37C
:103D1000D3E900230A4D80FB054520462946FDF7DF
:103D200097FB0023074A306029462046FDF790FBA9
:103D30000023044AFDF78CFB726070BDAFF3008076
:103D40003AA3950040420F000010A5D4E8000000FF
:103D500070B5144606460846FDF71AF92146FDF7E8
:103D60006BF91349FDF71CFAFDF749FC0CA3D3E9E5
:103D70000023104D80FB054520462946FDF768FBD2
:103D800009A3D3E90023306029462046FDF760FBF4
:103D90000023094AFDF75CFB726070BDAFF3008041
:103DA00000209BF35E10000080A8120100000000BC
:103DB00000002041D8EF2F0040420F00000000001B
:103DC000032970B504460D4606D007294BD029F0CB
:103DD00049F96FF0850028E0002A38D0072AF8D189
:103DE00058681E680346504AC117C6FB0231012BB2
:103DF00071F10002C0F28D804C48181841F10001A9
:103E000045A3D3E90023FDF723FB022826690DD043
:103E100010280DD004280DD008287AD12946204634
:103E20003CF090FF40B16FF0040070BD0025F5E755
:103E30000125F3E70225F1E73D203D4B33F815104E
:103E400081FB0001FDF7BAF8F0600020EDE718886B
:103E500029F0DAF8011E5CDB2046C9B229F010F91E
:103E60000028F2D0DFE7002A49D0072AB1D1B425D3
:103E70005A6819682C4BD017C1FB0320A2FB0531EF
:103E8000012A05FB001170F1000028DB29481818F1
:103E900041F1000122A3D3E90023FDF7D9FAFA2862
:103EA000266924D0B0F5FA7F23D0B0F57A7F22D0EE
:103EB000B0F5FA6F21D07D282BD104252946204664
:103EC0003CF050FF0028AED141F217101A4B33F8E6
:103ED000151081FB0001FDF771F8F061B5E7174897
:103EE000181861F100010EA3D3E90023D5E70025DE
:103EF000E4E70125E2E70225E0E70325DEE718888D
:103F000029F082F8011E04DB2046C9B229F08CF8A2
:103F1000A6E76FF0150088E73AA3950000000000BF
:103F2000D8EF2F000000000040420F009DD14A0052
:103F3000ACB70400ECF71700A2B704001408E8FFC0
:103F40001BA3D3E900230021C0E900231AA3D3E96E
:103F50000023C0E902231AA3D3E90023C0E9042304
:103F600019A3D3E90023C0E9062319A3D3E9002349
:103F7000C0E9082318A3D3E90023C0E90A2318A342
:103F8000D3E90023C0E90C2317A3D3E90023C0E938
:103F90000E2300220023C0F8D010C0E93023C0E96E
:103FA00032238022403042F0B5BE00BFAFF3008024
:103FB00008C9BCF367E6096A3BA7CA8485AE67BB3C
:103FC0002BF894FE72F36E3CF1361D5F3AF54FA567
:103FD000D182E6AD7F520E511F6C3E2B8C68059B43
:103FE0006BBD41FBABD9831F79217E1319CDE05BFB
:103FF000002110B50446064B4FF4C072C0E96011B1
:10400000C0E96211C0F8903142F084FE204610BD34
:10401000CDCC4C3E024630B553880178082B28BFE2
:1040200008230B48C1F383010A4C4840604302F166
:104030004901C2F1FF2202F57F02B7325518AB42A7
:1040400000DC30BD11F8015F68406043F6E700BF57
:10405000C59D1C81930100012DE9F04104460D46E8
:104060000746002642F210783B7B3BB17B68EB1A97
:10407000434503D93146204634F06AFC0136182EF8
:1040800007F11007F0D1D4F88C3153B1ED1A064B7B
:104090009D4206D9D4F884311BB1A3EBD303C4F8F5
:1040A0008431BDE8F08100BFE093040010B5D0F882
:1040B0008831032B26DDD0F88401FCF765FF4FF033
:1040C0006E51FCF7B9FF00210446FDF75DF9E0B938
:1040D0004FF081412046FCF7A7FE01462046FDF740
:1040E0005FF80B49FCF7A8FF0A49FCF79DFE4FF06B
:1040F0007E510446FDF75CF910B14FF07E5010BDC3
:104100002046FCE74FF07C50F9E70248F7E700BF94
:104110009A99193FCDCCCC3E0048704770CA040034
:104120000048704780EE360030B5C0E91512C3650F
:10413000012200230C4DC0E90533C0E90733C0E973
:104140000933C0E90B33C0E90F33C0E91133C0E9CB
:104150001333056043600372A0F860304363028745
:1041600080F83A3030BD00BFC08A0400F8B51D4663
:10417000137817469A090E460B7006D0224A022180
:10418000224839F0B8FA0020F8BD03F003020923F1
:10419000D34013F0010305BF0B81CB800521012122
:1041A0001FBFB7F80130F380B7F8033033817C5C70
:1041B000A309032B347101D1154AE0E704F03F0451
:1041C00003FB0444E2B2402A03D801315418AC4244
:1041D00006DD2B460F4A02210C4839F095FAD2E74A
:1041E000394406F10A0042F06FFD2B1B9BB2B82B3D
:1041F000738001D9084AEEE71A46391906F14A00D8
:1042000042F062FD0120BFE7D6B7040090830400AE
:1042100001B804002AB804005CB804002DE9F04F8E
:104220000446C3B00DF10808606DFF2203684146E3
:104230005B689847051E1BDD2368606D5F68036837
:10424000DB6B98470646606D03689B6B9847314669
:104250000246434620460095B847E06D03681B6858
:104260009847064638B90121894A8A4839F043FA05
:1042700043B0BDE8F08F01462B4642462046FFF78B
:1042800075FF002833D0606D0368DB6B98474FF0F3
:104290008141FCF7D1FEFDF795F886F80201676DC4
:1042A0003B683846D3F80CA0DB6B98472A4601469A
:1042B0003846D0470746606D294603689B68984793
:1042C000A3690344A36123683046D3F808A035F0FE
:1042D000CEFA3B46024631462046D047307834F08D
:1042E00001FC00285ED1A36C0133A3645DE0E06DA6
:1042F000314603685B6898470A2D95DDE06D0368D9
:104300001B689847064600288ED0A5F1080A01468A
:104310005346204604AAFFF729FF00283CD0606DD1
:104320000368DB6B98474FF08141FCF785FEFDF792
:1043300049F8337886F80201C3F383030321564A10
:104340005448CDF800A039F0E9F923683046D3F895
:1043500008B035F08CFA656D07462A682846D2F811
:104360000C90D26B9047524601462846C8473A46C1
:10437000034631462046D847307834F0B3FB38B195
:10438000636C013363643146204634F0ACFC4BE788
:10439000A36C0133A364F6E73146E06D03685B6804
:1043A000984741E7636C01336364092296F800A0E3
:1043B00020460AF00301CA4012F0010F31460AF00C
:1043C0003C0A14BF4FF0060B4FF0020BB6F80290F8
:1043D000377934F088FCBAF10C0F7FF425AFB9F1CE
:1043E000060F7FF621AFBB0907F03F0703FB0777F6
:1043F0005BFA87F70637A5EB070ABAF1020F7FF7DA
:1044000013AFE06D03681B689847054600283FF42A
:104410000BAF01465346204608EB0702FFF7A6FE06
:10442000002830D096F9023185F802312B78C3F399
:1044300083030321194A1748CDF800A039F06EF91B
:1044400023682846D3F808B035F011FA676D814625
:104450003A683846D668D26B90475246014638468D
:10446000B0474A46034629462046D847287834F0C4
:1044700039FB20B1636C01336364294684E7A36C84
:104480000133A364F9E7E06D294603685B6887E7B9
:104490008CB8040090830400ABB80400EBB80400AF
:1044A0002DE9F04FCBB00446806D00AF03681B6868
:1044B00098470546E06D294603681B69984728B967
:1044C000206207F59677BD46BDE8F08F204634F0B0
:1044D00043FB236820469B699847064600283ED048
:1044E000E06D4FF0000903685B6998478246CA4552
:1044F00002DC4FF0000817E0E06D49460368DB6915
:104500009847804610B909F10109F0E7E06D494686
:1045100003685B6A9847401B0028F4DC404634F08F
:104520003DFB80460028EED0606DFF2103689B684C
:104530009847B8F1000F12D1636A4208B3EB500FED
:104540000DD2E56C002DBCD06421D21A731E01FB84
:104550000233B3FBF6F0216D0130A847B1E7606D7F
:104560000368DB6A98470646606D03681B6B9847D3
:10457000804616B9002840F0A6802046E16934F054
:1045800033FB40B9E36C002B9BD0E069216D013017
:10459000401B984795E7236A0BB92B462562ED1A15
:1045A000236820461B6A984785427BD9B4F860305F
:1045B000606D43F00203A4F8603003689B6A98477B
:1045C0007860606D0268926B9047FCF7BDF8C7E9B0
:1045D0000401606D0268D26B9047FCF7B5F8C7E93B
:1045E0000201606D0268D26990478346606D02687F
:1045F000526D90478246606D0268D26D9047C7F851
:1046000018D0F86192B0A04A07F12801BA6205A853
:10461000012234F04BFA06A80E6034F047FAC1F8D4
:10462000008007A834F042FA7B6808A80B6034F0D9
:104630003DFAD7E904230AA8C7E90A23022234F085
:1046400035FAD7E902890CA8C7E90A8934F02EFAAD
:1046500001220EA8C1F800B034F028FA0FA8C1F862
:1046600000A034F023FAFB6910A80B6034F01EFAA6
:104670000D236A460B6042F8103F002346F64001C6
:1046800082480CF0FBFA606DD7F818D003685B6BBA
:10469000984700232362E36C002B3FF412AF012004
:1046A000216D76E723682046DB6998470146054679
:1046B000204634F0A5FAE36CE061002B3FF401AF33
:1046C000216D681C65E7E06D266203682946DB6A98
:1046D00098472072E06D29460368DB689847606060
:1046E00000283FF4EEAE0922037807F1280888F885
:1046F000003003F0030322FA03F3DB074ABF05226D
:104700000122C38802F1010644BFA8F801300389E1
:1047100000F10A0148BFA8F80330037908EB06004E
:1047200008F80230402235F088F8D4F804900644A6
:10473000B9F802A00AEB0603FF2B2BDDE8468AB08E
:10474000534B07F12401012205A87B6234F0AEF936
:1047500006A80E6034F0AAF907A8C1F800A034F04A
:10476000A5F9FF2308A80B6034F0A0F905236A46D9
:104770000B6042F8103F00234FF4215143480CF0E6
:104780007DFAE06DC546036861685B689847002361
:10479000636096E6524609F14A0108EB060042F0D2
:1047A00093FA606DB9F802900368B14449469B687A
:1047B000984700EB4006606D25610368B6F5167FEB
:1047C000DB6A34BF4FF49676760898470546606DED
:1047D00003681B6B984705B9F0B923682046DB696D
:1047E0009847E66D0146336805462046D3F80880B1
:1047F000D4F8049094F808A034F002FA5246034624
:1048000049463046C04700236360E36C002B3FF409
:1048100058AE2846216DBCE6606D414603684A46A5
:104820001B699847804648BB23682046DB69984748
:10483000054601210346174A144838F065FF6668AB
:1048400023683046D3F8109035F011F8314602460F
:104850002046C847E66D294633682046D3F80890BD
:10486000D4F804A094F808B034F0CAF95A460346C4
:1048700051463046C847C4F80480C6E73146204652
:1048800034F0BEF9E0601CE61DB90400908304001A
:10489000A2B90400CDB904002DE9F7430446087914
:1048A0000D4617461E4634F0B8FF6A88A8B1B82AEC
:1048B00013D8D4F85C803146D8F800302046D3F8BD
:1048C000089034F09DF93A46034629464046C847C9
:1048D000E36C8BB903B0BDE8F0832B790121084864
:1048E0000092084A38F01AFF2946E06D03685B68B9
:1048F00003B0BDE8F04318473046216DF8E700BF2C
:104900009083040001BA040070B5B8B001460446B3
:10491000684640F065FD9DF80030013BDBB2FD2BA1
:1049200038D8274B28AA03F140061546186859685D
:10493000083303C5B3422A46F7D1224B08AA03F134
:104940002006154618685968083303C5B3422A463D
:10495000F7D108A920A82FF0DDFC214620AA10A835
:1049600040F0EAFC694620A82FF0D4FC20AA28A930
:1049700018A840F0E1FC202218A910A835F0FBF897
:10498000044658B9202110A835F02FF9202118A885
:1049900035F02BF90024204638B070BD002310A953
:1049A00011F8012B1AB90133202BF9D1144610A8A4
:1049B000202135F01AF9202118A835F016F9EAE778
:1049C00052BA040093BA040038B504461D46059B4C
:1049D000FFF7AAFB084B65662360049B04F1700097
:1049E000A366069BE366FFF703FB04F5017034F052
:1049F00086FA204638BD00BFFC8A04002DE9F0414C
:104A000017460A78064602F03C04242C0D4603D1D2
:104A1000BDE8F04134F0E4B8013BDCB2022C07D928
:104A200002211548154A38F066FE29463046EFE760
:104A300022F0030242F00102A4010A700C71C06E60
:104A400003685B6898472B78C3F38303082B10D067
:104A5000042B14BF01240324336829463046DB6C41
:104A600098472246C31929463046BDE8F041FFF772
:104A700013BF0224F0E700BFB0830400B4BA0400FF
:104A80002DE9F0411F460B78064603F03C0CBCF1C3
:104A9000240F0C469DF8185003D1BDE8F04134F0C6
:104AA0009FB8013DEDB2022D07D902211548164AE3
:104AB00038F021FE21463046EFE723F003030B7068
:104AC0001388AD01CB8053880D710B81C06E0368D4
:104AD0005B6898472278C2F38302082A10D0042A20
:104AE00014BF01250325336821463046DB6C984707
:104AF0002A46C31921463046BDE8F041FFF7CCBE37
:104B00000225F0E7B0830400B4BA04002DE9F04FA9
:104B1000F5B00E78054606F00303023B012B0C4668
:104B200006AF00F24D8306F03C02242A0B795CD1DB
:104B30003F2B1BD84E88082E18D991F852C0093E39
:104B40000CF003029340F6B21FFA83FE76450FD8AD
:104B50000A340568D1F84E30D1F84A20CDE900C4B6
:104B6000039601F1530602962C6EA047002037E011
:104B70000121533301FA02F200F50171E01842F00D
:104B8000D8F80028F2D12B6821462846DB6B9847DD
:104B90000028EBD0E86E214603681B689847002880
:104BA000E4D1E86E214603685B68984794F90201F6
:104BB000FCF7EEF94FF07A51FCF73EFA4FF08141E5
:104BC000FCF73AFAFCF7FEFB237921465A1C2344F2
:104BD000227198722B6828465B6C984740F0C06041
:104BE00007F5DE77BD46BDE8F08F2C2A03F03F03C2
:104BF0000AD191F94A20002A80F2DF82002BB5D138
:104C000003685B6F9847B1E74BB90C2A40F0D88234
:104C10000368D1F84A20D3F884309847A6E70C2AD5
:104C200005D10368D1F84A20D3F884309847227917
:104C300005F501719209013204F10A0042F079F898
:104C4000002893D12B6821462846DB6B9847002823
:104C50008CD02378C3F383030A2B04D12146284642
:104C600034F01EFC82E7E86E032B026821461268CE
:104C700013D19047064600287FF478AFE86E2146AE
:104C800003685B6898472146284634F00BFB3246A0
:104C90002146284634F0ADFB68E7904700287FF4B2
:104CA00065AFE86E214603685B6898472146284651
:104CB00034F0F8FA2B68214628465B6C984740F0A0
:104CC00080708DE72B68214628469B6B984700280B
:104CD0007FF44CAF207834F0E1F9002800F07682C0
:104CE0002046FFF797F90646A86D05F1700803689E
:104CF0001B68984731460246404633F06FFE20B1AC
:104D00003146284634F02CFA60E22B6828469B6C2A
:104D10009847002800F05A82A86D03681B689847DE
:104D200031460246404633F033FE4FE26388032BA0
:104D300005D80221994A9A4838F0E6FC16E7E86E51
:104D400021460368D4F84A601B68984700287FF41E
:104D50000DAFE86E214603685B6898472B683246C2
:104D600021462846D3F8843098472B6821462846A8
:104D70005B6B984734E794F84B3094F84A80FB73A8
:104D80006388042B07D800930223864A1946844877
:104D900038F0C4FCEAE6E86E214603681B689847D1
:104DA000064600287FF4E2AEE86E214603685B68A1
:104DB000984795F804324345D7D104F14C037B6002
:104DC0002B6828465B6D07F10F019847804607F175
:104DD000300907F1B40B464521DA2B6832464946C3
:104DE00028469B6D98476388594648467A68023B37
:104DF00034F0D8FEB0F1000A40F386802278C2F386
:104E00008302082A74D19BF80080404634F005FDE7
:104E100058B902214346644A614838F075FC0221C2
:104E2000624A5F4838F067FC9FE74FEA981108F044
:104E30003F0201FB0222501C504520DBE8468AB0AD
:104E400006AE5B4906F118007161012134F073F977
:104E500005231146324606F11C0034F06CF9514628
:104E600006F1200034F067F93B6142F8103F00235F
:104E70004FF422514A480BF001FFC546CFE70232FA
:104E8000AAEB0203DBB25A442968039204931BF88D
:104E9000003007F1B50A03F00F03CDE90183CDF827
:104EA00000A0D1F864B04B46324621462846D84788
:104EB000D8B1207834F0F2F8B8B10023CDE902334C
:104EC0000193237907F10F0100934A46284604F124
:104ED0000A0334F0B5FB014638B14FF4FA73524679
:104EE00000932846434634F034FBFF2323703CE70D
:104EF0002968CDE901BACDF80090D1F85C8033463D
:104F000021462846C047F0E7013664E76388232B33
:104F10007FF62CAEE86E2146036894F84A601B6861
:104F2000984700287FF422AEE86E214603685B684C
:104F3000984795F80432B3427FF417AF04F14B065B
:104F400007F1100204F16B0C1346306871680836E3
:104F500003C366451A46F7D107F1100207F1300185
:104F600005F5017034F04DF8638807F1B408324656
:104F70004146213B07F1300034F014FE00287FF752
:104F8000F4AE2B68CDE900802146DE6E284607F19D
:104F9000100307F13002B047A7E700BFD6BA0400FC
:104FA000B083040004BB04003BBB0400A8BB0400A6
:104FB00067BB040094F84A3007F1100888F8003005
:104FC0006388032B7FF6D2ADE86E214603681B6829
:104FD0009847064600287FF4C9ADE86E214603686D
:104FE00007F1300A5B6898472B684146D3F87C90FC
:104FF000524604232846C847804604F14B0B07F16C
:10500000310907F1B4014645BFF6AFAE63884846A3
:105010005A46013B34F0C6FD002809F1210907F189
:10502000B4010EDD227806EB46132E68CDE90010A0
:10503000534421462846D6F88060C2F38302B04725
:1050400093E60136DFE707F1300033F046FF07F162
:10505000300604F14A0304F16A0C324618685968B4
:10506000083303C263451646F7D16388632B7FF686
:105070007DAD202207F1300105F5017041F059FEA8
:1050800000283FF473ADE86E21460368D4F86A80C7
:105090001B68984700287FF469ADE86E21460368D5
:1050A00007F1B40A5B689847D446668807F1300E6A
:1050B000643E202E28BF2026BEE80F00ACE80F007B
:1050C0009EE80F0004F1AE098CE80F003246494615
:1050D00007F1D800C7F8D48041F0F6FD524606F13A
:1050E000240304F16E0107F1300033F0FEFE0028C6
:1050F0003FF476AD2B68CDE9009621469E6E28469A
:10510000434607F13002B0472FE603F00303023BAA
:10511000012B3FF62BADE86E214603681B689847CC
:1051200000287FF423ADE86E214603685B6898474A
:105130002B68214628469B6F64E56288022A7FF629
:1051400015AD94F84A3003F00F03032B7FF40EAD36
:10515000042A7FF60BAD07F1B406304634F058FB55
:105160002378402287F8B43004F10A01237907F14B
:10517000BE0034F073FB628887F8B800013A92B23F
:1051800004F14B0107F1FE00A7F8B62041F09CFDA9
:10519000E86E314603681B68984700287FF4E6AC48
:1051A000E86E314603685B6898472B6831462846AD
:1051B000D3F88430D7F8FE202FE5002B7FF437ADED
:1051C000304633F06BFF00287FF47CAD2378C3F3C7
:1051D00083020F2A3FF6CAAC01A151F822F000BFAA
:1051E000774D0000774D0000774D00002D4D0000F9
:1051F00047500000B54F0000B54F00000D4F0000B4
:10520000774D00006D4B00003B5100006D4B0000DE
:105210006D4B00006D4B00006D4B00000B5100000A
:105220002DE9F843022907460D4690461E46DDF853
:10523000249009D809F11103B82B0FD90221154A7E
:10524000154838F058FA05E0144A0B461248022176
:1052500038F05AFA00242046BDE8F88333F0ACFC5D
:10526000044610B901210E4AEAE7AD00057098F82E
:10527000003000F14C0180F84A3097F80432089A67
:1052800080F84B304B46304634F060FC0230608092
:10529000E1E700BFD4BB0400B0830400F3BB04000B
:1052A00017BC04000022104630B5074BD3F820513C
:1052B0009C33AA4200DB30BD53F8044F0132641A1C
:1052C000002CD8BF0130F4E7F44C0220014BD3F896
:1052D00020017047F44C0220014BD3F820017047A5
:1052E000184E0220044BD3F820219142B4BF53F84A
:1052F00021000020704700BFF44C0220044BD3F87B
:1053000020219142BABF283153F821000020704774
:10531000F44C0220054BD3F820018142BDBF283157
:10532000012043F821200020704700BFF44C0220E8
:105330000022FF2070B50A4BD3F8206103F19C05D1
:105340008033B24200DB70BD55F8044F641A002C64
:1053500003DC9C5CA04228BF20460132F1E700BF7D
:10536000F44C022037B50B4B0A7804460D46D3F8AF
:105370002031C2F38302022100920748074A38F025
:10538000CDF92946204623685B6803B0BDE830406C
:10539000184700BFD04B0220C083040049BC040062
:1053A00008B5024834F042FB08BD00BFF44C0220AF
:1053B00008B5024834F03AFB08BD00BFD04B0220CC
:1053C00008B5024834F010FB08BD00BFF44C0220C1
:1053D00038B50B4B1C786CB901220A4D1A700023AA
:1053E00029461A460848013434F042FB202C05F5C2
:1053F0008275F4D10021044834F0F6FA38BD00BFBC
:1054000082B902203C970220184E022008B521B133
:10541000002302481A4634F02BFB08BD184E022028
:105420002DE9F04F85B01646484A0446D2F820814F
:105430000D46994600AFB8F1000F5AD00023194627
:10544000184602F17F0E98454ADC0A4492F88030F3
:10545000B3424ED93D483B6034F0C6FA95F800A0FF
:1054600090F800B0C7F804D08AB080466A46CBF303
:10547000830BCAF3830A364905A8F96007F10C01CA
:1054800034F0A5FA06A8C7F80CB034F0A0FA3B68CF
:1054900007A8FB6034F09BFA08A8C7F80CA034F00A
:1054A00096FA09A8FE6034F092FA0623FB6042F8EF
:1054B000103F00234FF4425126480BF0DFFB2368D6
:1054C000414620465B68D7F804D098474B463246A1
:1054D00029461E4834F0CCFA1437BD46BDE8F08F9B
:1054E0001EF801CF844534BF844619466046013317
:1054F000A9E795F800A0E9468AB06A46CAF3830A8C
:10550000154B07F10C0105A8FB6034F060FA06A802
:10551000C7F80C8034F05BFA07A8C7F80CA034F089
:1055200056FA08A8FE6034F052FA0523FB6042F8F0
:10553000103F00234FF4225106480BF09FFB2368D5
:10554000CD46294620465B689847C5E7F44C0220C3
:105550007EBC0400C0830400C0BC04002DE9F041FF
:10556000044608480D4616461F4634F081FA38B9FD
:105570003B46324629462046BDE8F041FFF750BF82
:10558000BDE8F081F44C022038B5044613460648C5
:1055900000220D4634F06CFA28B929462046BDE8B1
:1055A0003840FFF7DFBE38BDD04B022038B50024AD
:1055B000094D281904F5827434F02AF9B4F5025F14
:1055C000F7D1064834F006FA054834F003FA0548E6
:1055D00034F000FA38BD00BF3C970220184E02207C
:1055E000F44C0220D04B02202DE9F04194B0074644
:1055F0000C4616460021142207A81D4641F08AFBDE
:105600004FF48853ADF818304FF48073ADF81A306A
:105610004FF48063DFF85C802022CDE908383946FA
:1056200004AB06A840F0C6FA034650B1124A012165
:10563000124838F069F84FF0FF34204614B0BDE846
:10564000F08105AB0293202301930CAB224600931B
:1056500041463346049840F09CFB0446049840F0D1
:10566000DFF914B1064A2346E1E7BDF830302B805C
:10567000E3E700BF090080030EBD0400F0830400CF
:1056800032BD04002DE9F0478EB00D4604AF12F094
:105690000F01824614461E4697F848800BD01346E9
:1056A000334A0121334838F02FF84FF0FF302837C4
:1056B000BD46BDE8F08714222F4BB8183B6141F07E
:1056C00029FBB8F1000F0CBF4FF400734FF4807347
:1056D0001022DFF8A890BB6151463B1DB818C7F8EF
:1056E0001C9040F067FA034608B1254AD9E707F154
:1056F000080378682A46CDE90143494623460096C7
:10570000B8F1000F2FD02FF0F7FA0446786840F078
:1057100087F95CB31B4B1C4D6E468AB0B8F1000F85
:1057200008BF1D4604AA194B07F10C0102F1140031
:10573000FB6034F0C5F93046FD6034F0C1F902F188
:105740001C00FC6034F0BCF94FF400731384104B60
:10575000FB6042F8103F00234FF4115105480BF055
:105760008DFAB546A1E72FF063FBCEE7B8689EE758
:105770006BBD0400F083040000248000004440045A
:1057800089BD040063BD04005BBD0400A3BD04002B
:105790000400000130B58DB00D4611461A4603AB2A
:1057A00001932023044600930E4804AB40F0E1FA35
:1057B000034660B101210C4A0C4837F0A5FF2A4688
:1057C000002120460DB0BDE8304041F0A3BA202DA5
:1057D0002A46204628BF202204A941F075FA0DB0C0
:1057E00030BD00BF09000002BCBD0400F08304000E
:1057F0002DE9F043A7B00446DDE92E780D461646A4
:10580000002170220AA8994641F084FA19490AA891
:1058100040F060FAE8B94A4631460AA840F07BFAFF
:10582000B8B9424639460AA840F075FA88B920222C
:1058300001AB02A90AA840F085FA50B9202D2A46EA
:10584000204628BF202202A941F03EFA27B0BDE839
:10585000F08301210346084A084837F055FF0AA89B
:1058600040F029FA2A460021204627B0BDE8F0433F
:1058700041F050BA09000002D8BD0400F0830400D2
:1058800008B5054B002814BF01461946034837F0F8
:105890005CFA01200AF052FEF3BD0400FFBD0400D3
:1058A0000346F0B50A4D8E18B14203F1020303D14D
:1058B000002300F81230F0BD11F8014B270904F065
:1058C0000F04EF5D2C5D03F8027C03F8014CEBE75D
:1058D000D32F0500004870472EBE040000487047D3
:1058E0002EBE0400004870473CBE040008B50368A3
:1058F0001B689847BDE808400146014834F038BFAE
:10590000288D040008B510460249FBF755FE00201B
:1059100008BD00BF4ABE040037B5124C20463DF01A
:10592000CFFB10B9104803B030BDA5684C2120460C
:10593000EB6898470028F5D10C216A4620462B6970
:1059400098470028EED10198FBF722FB0749FBF7A7
:1059500027FC04460098FBF71BFB01462046FBF79B
:1059600063FAE0E7E87604000000C07F0024744991
:1059700070B5C3680C4615469BB393F87430DA1FB4
:10598000052A32D81A4A073B52F82360214630468E
:10599000FBF70EFD48BB2846FBF7FAFA4FF06E51B5
:1059A000FBF74AFB01464FF07E50FBF73BFA3146CE
:1059B00005462046FBF736FA0E49FBF7F1FB014698
:1059C0002846FBF739FB00210446FBF7D3FC60B9FE
:1059D0004FF07E512046FBF7EBFC20B14FF07E509C
:1059E00070BD0823CEE72046FAE70020F8E700BFA5
:1059F000C88C0400000020412DE9F843C3688846A4
:105A0000002B00F08E8093F874609C6F93F8757093
:105A10000C2E354628BF0C252046062D444938BF9C
:105A20000625FBF7A7FC00B1424C082F28BF08272A
:105A30000120052F00FA05F038BF0527FBF7A8FA6B
:105A40003D4981462046FBF7F7FA01464846FBF7F9
:105A5000A7FB0446082E8CBF10202020FBF798FAE5
:105A60003649FBF7E1F92146FBF7E6FA34490646E9
:105A70002046FBF79DFC002857D04FF07E59284662
:105A8000FBF786FA05464046FBF782FA4FF0824163
:105A9000FBF7D2FA4FF0814180462846FBF7CCFA5B
:105AA00001464046FBF7BEF92649FBF7BDF94FF02A
:105AB0008341FBF7B9F9494680464846FBF7B4F9FC
:105AC00001462846FBF7AEF94FF08141FBF7B4FAE7
:105AD0004FF07E510546FBF74DFC08B14FF0814574
:105AE00029464046FBF75CFB32F0B8FE05463846D7
:105AF000FBF74EFA2946FBF79FFA002141F0A1FB84
:105B00004FF08241FBF790F92146FBF795FA3146B9
:105B1000FBF78AF90849FBF78FFAFBF779FCBDE838
:105B2000F8830826084C374672E74FF00009A6E7CD
:105B30000000E0400000FA4200007A440000884083
:105B40005A2F863C0000E041000078422DE9F04FDA
:105B5000036889B0D3F8943004468A469146984742
:105B6000804638B949465046364A09B0BDE8F04F3C
:105B700031F0A0B894F8223A94F81E1A94F91F2A2A
:105B80000493B4F8203ACDE902031318CDE90023B9
:105B90002D4A2E4B5046002908BF13462C4A29EAAD
:105BA000E97131F087F894F91F6A6FF007030C2E42
:105BB000A8BF0C269E42B8BF1E469E42074606F16D
:105BC000FF3507D00C2E06F1010B06D14FF00C0B60
:105BD0000A2502E06FF0050B1D4604EBC504AB453A
:105BE00003DA384609B0BDE8F08FB4F8B629B4F846
:105BF000BAC92AB36421530801FB0C33B3FBF2F397
:105C00000693B4F8BC394F45CDE904C3B4F8B839AC
:105C1000B8BFA9EB0701CDE9022308EB0503CDE9E5
:105C20000053A8BF00210AEB0700AE4214BF202397
:105C30002A23084A31F03EF8013507440834CEE7FC
:105C40001346DDE787BE040095C9040063E904003C
:105C50008FBE0400B6BE04002DE9F047099C1E4625
:105C60009DF9208031B92AB904F62430BDE8F04707
:105C700034F070B904F65409484634F04FF8C5B210
:105C800004F6580034F04AF86F1C07F00707C0B25A
:105C9000874210D11B4802211B4A37F02CFD04F625
:105CA000243034F057F9D4F8683A43B3D4F86C0A86
:105CB000BDE8F0471847B2F5807F28BF4FF48072E7
:105CC0004FF4837392465D4305F12400204425443C
:105CD00040F0FAFF39464846A5F824A1A5F8266108
:105CE00085F8288134F0F8F83046FBF751F9E06187
:105CF0004046FBF74DF9206204F61C30D1E7BDE8C1
:105D0000F08700BFD0820400D6BE04000C2A2DE923
:105D1000F043A8BF0C221E466FF0070383B09A42DF
:105D2000B8BF1A4600AF97F82890036880F81E1A8B
:105D300080F81F2AA0F8206A80F8229A8846D3F8B3
:105D400090301146144698478AB06A46104905A813
:105D500034F0A0F8414606A834F094F8214607A88C
:105D600034F090F8314608A834F084F8494609A880
:105D700034F080F806237B6042F8103F00234FF494
:105D8000435104480AF07AFF0C37BD46BDE8F08362
:105D9000F8BE0400D08204002DE9F0411A4B82B015
:105DA0001A4EE84600AF88B004460D46002908BFE9
:105DB0001E466A4680F83A1A154905A834F06AF872
:105DC000314606A834F066F84FF40073ADF81C3085
:105DD000104B7B6042F8103F0F4800234FF4E65110
:105DE0000AF04CFF04F11400C54633F097FF28B1C8
:105DF000236829462046D3F8803098470120083789
:105E0000BD46BDE8F08100BF17F2040024F2040093
:105E10002FBF040003000001D082040070B50446C7
:105E20002E480025C4E90213206000230020002131
:105E30000126C4E9042504F52362E3612571A56107
:105E40002362C4F85458C4F85858C4F86C59C4F8BC
:105E5000705984F87459A4F81E5AA4F8205A84F88A
:105E6000225A42E90201C2E90001A4F8385A84F832
:105E70003A6AC4F83C5AC4F8405AA4F8585AC4F8CC
:105E80005C3AC4F8603AA4F8645AC4F8685AC4F892
