:10000000B0FD0020D5DE0000C5170200C1DE0000F3
:10001000C1DE0000C1DE0000C1DE0000C1DE000064
:100020000000000000000000000000000DDF0000E4
:10003000C1DE000000000000E1E00000C1DE0000C1
:1000400065E1000065E1000065E1000065E1000098
:1000500065E1000065E1000065E1000065E1000088
:1000600065E1000065E1000065E1000065E1000078
:1000700065E1000065E1000065E1000065E1000068
:1004800081F0004102E000BF83F0004330B54FEA45
:1004900041044FEA430594EA050F08BF90EA020FB2
:1004A0001FBF54EA000C55EA020C7FEA645C7FEA45
:1004B000655C00F0E2804FEA5454D4EB5555B8BF68
:1004C0006D420CDD2C4480EA020281EA030382EAD9
:1004D000000083EA010180EA020281EA0303362D6B
:1004E00088BF30BD11F0004F4FEA01314FF4801C3E
:1004F0004CEA113102D0404261EB410113F0004F50
:100500004FEA03334CEA133302D0524263EB430306
:1005100094EA050F00F0A780A4F10104D5F1200EA4
:100520000DDB02FA0EFC22FA05F2801841F10001FF
:1005300003FA0EF2801843FA05F359410EE0A5F1D3
:1005400020050EF1200E012A03FA0EFC28BF4CF004
:10055000020C43FA05F3C01851EBE37101F00045BA
:1005600007D54FF0000EDCF1000C7EEB00006EEBC7
:100570000101B1F5801F1BD3B1F5001F0CD3490851
:100580005FEA30004FEA3C0C04F101044FEA4452A8
:1005900012F5800F80F09A80BCF1004F08BF5FEA2F
:1005A000500C50F1000041EB045141EA050130BD0F
:1005B0005FEA4C0C404141EB0101013C28BFB1F521
:1005C000801FE9D291F0000F04BF01460020B1FA6C
:1005D00081F308BF2033A3F10B03B3F120020CDA3F
:1005E0000C3208DD02F1140CC2F10C0201FA0CF01D
:1005F00021FA02F10CE002F11402D8BFC2F1200C82
:1006000001FA02F120FA0CFCDCBF41EA0C01904037
:10061000E41AA2BF01EB0451294330BD6FEA040480
:100620001F3C1CDA0C340EDC04F11404C4F120026B
:1006300020FA04F001FA02F340EA030021FA04F37D
:1006400045EA030130BDC4F10C04C4F1200220FAD4
:1006500002F001FA04F340EA0300294630BD21FA12
:1006600004F0294630BD94F0000F83F4801306BFD8
:1006700081F480110134013D4EE77FEA645C18BFCC
:100680007FEA655C29D094EA050F08BF90EA020F63
:1006900005D054EA000C04BF1946104630BD91EA5B
:1006A000030F1EBF0021002030BD5FEA545C05D15E
:1006B0004000494128BF41F0004130BD14F580049D
:1006C0003CBF01F5801130BD01F0004545F0FE4111
:1006D00041F470014FF0000030BD7FEA645C1ABF46
:1006E000194610467FEA655C1CBF0B46024650EA7D
:1006F000013406BF52EA033591EA030F41F40021A9
:1007000030BD00BF90F0000F04BF0021704730B52E
:100710004FF4806404F132044FF000054FF0000103
:1007200050E700BF90F0000F04BF0021704730B5C4
:100730004FF4806404F1320410F0004548BF404299
:100740004FF000013EE700BF42004FEAE2014FEAEE
:1007500031014FEA02701FBF12F07F4393F07F4FC9
:1007600081F06051704732F07F4208BF704793F0CC
:100770007F4F04BF41F40021704730B54FF46074DF
:1007800001F0004521F000411CE700BF50EA0102E2
:1007900008BF704730B54FF000050AE050EA01028B
:1007A00008BF704730B511F0004502D5404261EBFB
:1007B00041014FF4806404F132045FEA915C3FF43C
:1007C000D8AE4FF003025FEADC0C18BF03325FEAD9
:1007D000DC0C18BF033202EBDC02C2F1200300FA8A
:1007E00003FC20FA02F001FA03FE40EA0E0021FAAF
:1007F00002F11444BDE600BF70B54FF0FF0C4CF49D
:10080000E06C1CEA11541DBF1CEA135594EA0C0F4E
:1008100095EA0C0F00F0DEF82C4481EA030621EA89
:100820004C5123EA4C5350EA013518BF52EA0335C4
:1008300041F4801143F4801338D0A0FB02CE4FF076
:100840000005E1FB02E506F00042E0FB03E54FF0A6
:100850000006E1FB03569CF0000F18BF4EF0010E9E
:10086000A4F1FF04B6F5007F64F5407404D25FEA9A
:100870004E0E6D4146EB060642EAC62141EA55514D
:100880004FEAC52040EA5E504FEACE2EB4F1FD0C8F
:1008900088BFBCF5E06F1ED8BEF1004F08BF5FEA0D
:1008A000500E50F1000041EB045170BD06F00046BF
:1008B00046EA010140EA020081EA0301B4EB5C046C
:1008C000C2BFD4EB0C0541EA045170BD41F4801164
:1008D0004FF0000E013C00F3AB8014F1360FDEBF89
:1008E000002001F0004170BDC4F10004203C35DA65
:1008F0000C341BDC04F11404C4F1200500FA05F3E8
:1009000020FA04F001FA05F240EA020001F0004288
:1009100021F0004110EBD37021FA04F642EB0601FE
:100920005EEA430E08BF20EAD37070BDC4F10C0428
:10093000C4F1200500FA04F320FA05F001FA04F2EC
:1009400040EA020001F0004110EBD37041F10001D8
:100950005EEA430E08BF20EAD37070BDC4F12005E3
:1009600000FA05F24EEA020E20FA04F301FA05F24B
:1009700043EA020321FA04F001F0004121FA04F2F3
:1009800020EA020000EBD3705EEA430E08BF20EAC3
:10099000D37070BD94F0000F0FD101F000464000FD
:1009A00041EB010111F4801F08BF013CF7D041EA7F
:1009B000060195F0000F18BF704703F00046520083
:1009C00043EB030313F4801F08BF013DF7D043EA54
:1009D0000603704794EA0C0F0CEA135518BF95EA0A
:1009E0000C0F0CD050EA410618BF52EA4306D1D191
:1009F00081EA030101F000414FF0000070BD50EAB0
:100A0000410606BF1046194652EA430619D094EA39
:100A10000C0F02D150EA013613D195EA0C0F05D123
:100A200052EA03361CBF104619460AD181EA030177
:100A300001F0004141F0FE4141F470014FF000002F
:100A400070BD41F0FE4141F4780170BD70B54FF0CA
:100A5000FF0C4CF4E06C1CEA11541DBF1CEA13554A
:100A600094EA0C0F95EA0C0F00F0A7F8A4EB05042C
:100A700081EA030E52EA03354FEA013100F0888023
:100A80004FEA03334FF0805545EA131343EA1263EC
:100A90004FEA022245EA111545EA10654FEA0026A1
:100AA0000EF000419D4208BF964244F1FD0404F55A
:100AB000407402D25B084FEA3202B61A65EB0305B6
:100AC0005B084FEA32024FF480104FF4002CB6EB73
:100AD000020E75EB030E22BFB61A754640EA0C00F3
:100AE0005B084FEA3202B6EB020E75EB030E22BF33
:100AF000B61A754640EA5C005B084FEA3202B6EB74
:100B0000020E75EB030E22BFB61A754640EA9C0032
:100B10005B084FEA3202B6EB020E75EB030E22BF02
:100B2000B61A754640EADC0055EA060E18D04FEAC0
:100B3000051545EA16754FEA06164FEAC30343EA60
:100B400052734FEAC2025FEA1C1CC0D111F4801F2D
:100B50000BD141EA00014FF000004FF0004CB6E726
:100B600011F4801F04BF01430020B4F1FD0C88BFC5
:100B7000BCF5E06F3FF6AFAEB5EB030C04BFB6EBD0
:100B8000020C5FEA500C50F1000041EB045170BDC3
:100B90000EF0004E4EEA113114EB5C04C2BFD4EBF0
:100BA0000C0541EA045170BD41F480114FF0000E74
:100BB000013C90E645EA060E8DE60CEA135594EAF0
:100BC0000C0F08BF95EA0C0F3FF43BAF94EA0C0FF3
:100BD0000AD150EA01347FF434AF95EA0C0F7FF468
:100BE00025AF104619462CE795EA0C0F06D152EABC
:100BF00003353FF4FDAE1046194622E750EA4106A0
:100C000018BF52EA43067FF4C5AE50EA41047FF4B0
:100C10000DAF52EA43057FF4EBAE12E74FEA410213
:100C200012F5001215D211D56FF47873B3EB62523E
:100C300012D94FEAC12343F0004343EA505311F065
:100C4000004F23FA02F018BF404270474FF00000F7
:100C5000704750EA013005D111F0004008BF6FF035
:100C6000004070474FF00000704700BF4FEA41025C
:100C7000B2F1E04324BFB3F5001CDCF1FE5C0DD9FA
:100C800001F0004C4FEAC0024CEA5070B2F1004F44
:100C900040EB830008BF20F00100704711F0804F47
:100CA00021D113F13872BCBF01F00040704741F40C
:100CB00080114FEA5252C2F11802C2F1200C10FA10
:100CC0000CF320FA02F018BF40F001004FEAC123F4
:100CD0004FEAD32303FA0CFC40EA0C0023FA02F398
:100CE0004FEA4303CCE77FEA625307D150EA01336E
:100CF0001EBF4FF0FE4040F44000704701F000403E
:100D000040F0FE4040F40000704700BF80F000401B
:100D100002E000BF81F0004142001FBF5FEA4103D3
:100D200092EA030F7FEA226C7FEA236C6AD04FEAD3
:100D30001262D2EB1363C1BFD21841404840414018
:100D4000B8BF5B42192B88BF704710F0004F40F4CA
:100D5000000020F07F4018BF404211F0004F41F4E6
:100D6000000121F07F4118BF494292EA030F3FD0B2
:100D7000A2F1010241FA03FC10EB0C00C3F12003C5
:100D800001FA03F100F0004302D5494260EB400054
:100D9000B0F5000F13D3B0F1807F06D340084FEABF
:100DA000310102F10102FE2A51D2B1F1004F40EBB4
:100DB000C25008BF20F0010040EA0300704749001C
:100DC00040EB0000013A28BFB0F5000FEDD2B0FAB9
:100DD00080FCACF1080CB2EB0C0200FA0CF0AABFDC
:100DE00000EBC25052421843BCBFD040184370477A
:100DF00092F0000F81F4000106BF80F40000013280
:100E0000013BB5E74FEA41037FEA226C18BF7FEA56
:100E1000236C21D092EA030F04D092F0000F08BF98
:100E20000846704790EA010F1CBF0020704712F07F
:100E30007F4F04D1400028BF40F00040704712F1BE
:100E400000723CBF00F50000704700F0004343F023
:100E5000FE4040F4000070477FEA226216BF084659
:100E60007FEA23630146420206BF5FEA412390EA1C
:100E7000010F40F4800070474FF0000304E000BF12
:100E800010F0004348BF40425FEA000C08BF7047C3
:100E900043F0964301464FF000001CE050EA010287
:100EA00008BF70474FF000030AE000BF50EA01029C
:100EB00008BF704711F0004302D5404261EB410189
:100EC0005FEA010C02BF84460146002043F0B643AE
:100ED00008BFA3F18053A3F50003BCFA8CF2083AD3
:100EE000A3EBC25310DB01FA02FC634400FA02FCDC
:100EF000C2F12002BCF1004F20FA02F243EB0200E3
:100F000008BF20F00100704702F1200201FA02FC44
:100F1000C2F1200250EA4C0021FA02F243EB020037
:100F200008BF20EADC7070474FF0FF0C1CEAD0527B
:100F30001EBF1CEAD15392EA0C0F93EA0C0F6FD03C
:100F40001A4480EA010C400218BF5FEA41211ED01A
:100F50004FF0006343EA501043EA5111A0FB013106
:100F60000CF00040B1F5000F3EBF490041EAD371DB
:100F70005B0040EA010062F17F02FD2A1DD8B3F157
:100F8000004F40EBC25008BF20F00100704790F0C6
:100F9000000F0CF0004C08BF49024CEA502040EA18
:100FA00051207F3AC2BFD2F1FF0340EAC2507047DE
:100FB00040F400004FF00003013A5DDC12F1190F1C
:100FC000DCBF00F000407047C2F10002410021FA8E
:100FD00002F1C2F1200200FA02FC5FEA310040F1A6
:100FE000000053EA4C0308BF20EADC70704792F01F
:100FF000000F00F0004C02BF400010F4000F013A57
:10100000F9D040EA0C0093F0000F01F0004C02BF51
:10101000490011F4000F013BF9D041EA0C018FE7C0
:101020000CEAD15392EA0C0F18BF93EA0C0F0AD0C6
:1010300030F0004C18BF31F0004CD8D180EA0100EC
:1010400000F00040704790F0000F17BF90F0004F85
:10105000084691F0000F91F0004F14D092EA0C0F67
:1010600001D142020FD193EA0C0F03D14B0218BFFA
:10107000084608D180EA010000F0004040F0FE4040
:1010800040F40000704740F0FE4040F440007047DC
:101090004FF0FF0C1CEAD0521EBF1CEAD15392EA5B
:1010A0000C0F93EA0C0F69D0A2EB030280EA010C4B
:1010B00049024FEA402037D04FF0805343EA1111E4
:1010C00043EA10130CF000408B4238BF5B0042F142
:1010D0007D024FF4000C8B4224BF5B1A40EA0C00E7
:1010E000B3EB510F24BFA3EB510340EA5C00B3EB19
:1010F000910F24BFA3EB910340EA9C00B3EBD10F07
:1011000024BFA3EBD10340EADC001B0118BF5FEA58
:101110001C1CE0D1FD2A3FF650AF8B4240EBC25081
:1011200008BF20F0010070470CF0004C4CEA502042
:101130007F32C2BFD2F1FF0340EAC250704740F491
:1011400000004FF00003013A37E792F0000F00F083
:10115000004C02BF400010F4000F013AF9D040EA01
:101160000C0093F0000F01F0004C02BF490011F495
:10117000000F013BF9D041EA0C0195E70CEAD1538D
:1011800092EA0C0F08D142027FF47DAF93EA0C0F74
:101190007FF470AF084676E793EA0C0F04D14B0258
:1011A0003FF44CAF08466EE730F0004C18BF31F00A
:1011B000004CCAD130F000427FF45CAF31F0004304
:1011C0007FF43CAF5FE700BF4FF0FF3C06E000BF9D
:1011D0004FF0010C02E000BF4FF0010C4DF804CDC0
:1011E0004FEA40024FEA41037FEA226C18BF7FEAD0
:1011F000236C11D001B052EA530C18BF90EA010FD2
:1012000058BFB2EB030088BFC81738BF6FEAE17060
:1012100018BF40F0010070477FEA226C02D15FEAFC
:10122000402C05D17FEA236CE4D15FEA412CE1D068
:101230005DF8040B704700BF844608466146FFE72F
:101240000FB5FFF7C9FF002848BF10F1000F0FBD11
:101250004DF808EDFFF7F4FF0CBF012000205DF80A
:1012600008FB00BF4DF808EDFFF7EAFF34BF01208F
:1012700000205DF808FB00BF4DF808EDFFF7E0FF28
:1012800094BF012000205DF808FB00BF4DF808ED79
:10129000FFF7D2FF94BF012000205DF808FB00BFDC
:1012A0004DF808EDFFF7C8FF34BF012000205DF8BE
:1012B00008FB00BF4FEA40024FEA41037FEA226C7D
:1012C00002D15FEA402C08D17FEA236C02D15FEAA9
:1012D000412C02D14FF0000070474FF001007047E1
:1012E0004FEA4002B2F1FE4F0FD34FF09E03B3EB33
:1012F00012620DD94FEA002343F0004310F0004F73
:1013000023FA02F018BF404270474FF000007047C8
:1013100012F1610F01D1420205D110F0004008BF67
:101320006FF0004070474FF00000704742000ED24F
:10133000B2F1FE4F0BD34FF09E03B3EB126209D410
:101340004FEA002343F0004323FA02F070474FF0C6
:101350000000704712F1610F01D1420202D14FF03B
:10136000FF3070474FF00000704700BF7BB972B983
:101370000029BEBF00204FF0004106E008BF002852
:101380001CBF6FF000414FF0FF3000F077B8ADF1B7
:10139000080C6DE904CE002909DB002B1ADB00F0F4
:1013A000CFF8DDF804E0DDE9022304B070474042E5
:1013B00061EB4101002B1BDB00F0C2F8DDF804E01B
:1013C000DDE9022304B0404261EB4101524263EB8C
:1013D00043037047524263EB430300F0B1F8DDF87A
:1013E00004E0DDE9022304B0404261EB41017047B3
:1013F000524263EB430300F0A3F8DDF804E0DDE9BB
:10140000022304B0524263EB4303704753B94AB915
:10141000002908BF00281CBF4FF0FF314FF0FF30FC
:1014200000F02CB8ADF1080C6DE904CE00F088F89E
:10143000DDF804E0DDE9022304B07047D0B5FFF722
:1014400083F900220B4B06460F46FFF7D5F900F053
:1014500017F80446FFF756F90022074BFFF7CCF9BF
:1014600002460B4630463946FFF70EF800F008F802
:101470002146D0BD0000F03D0000F041704700BFA4
:101480004A0011D212F5001211D20DD56FF4787303
:10149000B3EB62520ED44FEAC12343F0004343EA58
:1014A000505323FA02F070474FF00000704750EAA3
:1014B000013002D14FF0FF3070474FF0000070470D
:1014C00010F8012B11F8013B012A28BF9A42F7D0EE
:1014D000D01A7047034611F8012B03F8012B002A9C
:1014E000F9D17047034613F8012B002AFBD1181AD3
:1014F00001387047430803F05533C01A00F0333306
:10150000800800F0333018444FF0013300EB101026
:1015100000F00F305843000E704710B5002104460C
:10152000FFF7A0FE20B92046BDE81040FFF786BFB8
:1015300004F10040FFF782FF404261EB410110BD22
:101540002DE9F0478C468E46089E154604461946FE
:10155000002B40F0D080724547D9B2FA82F74FB1E4
:10156000C7F120030EFA07FCBD40BC4020FA03F38C
:1015700043EA0C0C4FEA154EA8B2230CBCFBFEF854
:101580000EFB18CC08FB00F943EA0C43994528D917
:10159000EB1808F1FF3204D2994502D9A8F10202F2
:1015A0002B44A3EB0903A4B2B3FBFEFC0EFB1C33DC
:1015B0000CFB00F044EA0344A04214D92C190CF1AE
:1015C000FF3304D2A04202D9ACF102032C44241A06
:1015D00043EA02401EB1FC40002334607360BDE862
:1015E000F0874246DDE76346F1E7002A79D0B2FA98
:1015F00082F3002B3FD01946C1F1200302FA01F516
:1016000000FA01F42EFA03F20EFA01FE20FA03F3B7
:10161000AFB243EA0E034FEA154EB2FBFEFC0EFBDF
:101620001C201A0C0CFB07F842EA004290455AD9DC
:10163000AA180CF1FF3004D2904502D9ACF1020097
:101640002A44A2EB08029BB2B2FBFEFC0EFB1C225A
:101650000CFB07F743EA02439F4246D9EB180CF113
:10166000FF3204D29F4202D9ACF102022B44DB1BB1
:1016700042EA004202E0AEEB020301224FEA154EBD
:10168000AFB2200CB3FBFEFC0EFB1C330CFB07F8C7
:1016900040EA034398452AD9EB180CF1FF3004D2F5
:1016A000984502D9ACF102002B44A3EB0803A4B285
:1016B000B3FBFEFC0EFB1C330CFB07F744EA0344B0
:1016C000A74216D92C190CF1FF3304D2A74202D934
:1016D000ACF102032C44E41B43EA00400F461146E0
:1016E00078E71F2188E76046ABE76246BFE76046C0
:1016F000DBE76346EFE7734506D916B900210846D4
:101700006DE7C6E9000EF9E7B3FA83F787B97345C9
:1017100001D3824207D8841A6EEB030301209C4652
:101720001EB900215BE73846FAE7C6E9004CF8E746
:10173000C7F1200CBB4000FA07F422FA0CF520FA9E
:101740000CF1BA401D432EFA0CF30EFA07FE4FEAD5
:10175000154941EA0E011FFA85FEB3FBF9F809FBB2
:1017600018300B0C08FB0EFA43EA00439A4540D9A7
:10177000EB1808F1FF3004D29A4502D9A8F1020013
:101780002B44A3EB0A0389B2B3FBF9F809FB183326
:1017900008FB0EFE41EA03418E452CD9691808F179
:1017A000FF3304D28E4502D9A8F10203294443EA4B
:1017B0000040A1EB0E01A0FB02984145CE464346F6
:1017C00002D306D14C4504D20138B9EB020E68EBC6
:1017D0000503002EA5D0B4EB0E0261EB030101FA64
:1017E0000CFC22FA07F3F9404CEA0303C6E9003186
:1017F00097E74046C5E74346D9E7000000000000F0
:101800002DE9F04F85B000AFD7E90E56012D904677
:1018100076F1000282468B46994629DBC7F804D050
:1018200088B03F4905A81DF0C2FD022207F108015A
:1018300006A8C7E902561DF0B0FD04236A46BB6046
:1018400042F8103F00234FF4035136480BF0DAFC06
:101850002946D7F804D034481DF0CDFA334BD3E8ED
:10186000EF2FC3E8E15F0029F9D1402004F068FBC5
:1018700059465046FFF7D2F9494606464046FFF71B
:10188000CDF98AB005462A4905A81DF090FD3146DC
:1018900006A81DF095FD3046FEF744FF02460B46B4
:1018A00050465946FEF7F0FD1BA3D3E90023FEF78F
:1018B000A3FFFFF7B3F980EAE071A1EBE07107A89D
:1018C0001DF07EFD294608A81DF07AFD2846FEF78A
:1018D00029FF02460B4640464946FEF7D5FD0EA3BA
:1018E000D3E90023FEF788FFFFF798F980EAE0715B
:1018F000A1EBE07109A81DF063FD06236A46BB60F9
:1019000042F8103F00234FF4435106480BF07AFC95
:101910001437BD46BDE8F08F0000000080842E41E2
:10192000C1BB0200708D0200146200203C620020E6
:10193000DDBB02000000000010B588B00446684618
:101940001DF0AFFA50B1DDE90001FEF727FF06A355
:10195000D3E90023FFF77AF808B010BDD4E9AE014F
:10196000FAE700BFAFF300800000000065CDCD4175
:1019700010B588B0044668461DF093FA50B1DDE911
:101980000201FEF70BFF06A3D3E90023FFF75EF881
:1019900008B010BDD4E9B001FAE700BFAFF3008092
:1019A0000000000065CDCD4170B592B00C461DF031
:1019B0006EFA30B920462A4912B0BDE87040FFF7F0
:1019C00089BD07A81DF075FA9DF81C300AA8022BE6
:1019D00096BF244A244D52F823501DF062FABDF8F8
:1019E0001E6008B3DDE90C01FEF7D8FE1AA3D3E9A7
:1019F0000023FFF72BF8CDE90401DDE90A01FEF72A
:101A0000CDFE15A3D3E90023FFF720F8089BCDE90D
:101A10000201CDE900634FF480712B462046134A42
:101A200019F0E8FF12B070BD099B4BB1CDE900631E
:101A30004FF480712B4620460D4A19F0DBFFF1E789
:101A40002B464FF4807120460A4A009619F0D2FFC7
:101A5000E8E700BFAFF300800000000065CDCD4196
:101A6000DECC02003498020030CD02003EBF0200FE
:101A700070BF020094BF02002DE9F04F00F58054C2
:101A8000DDB0C4F8D0281A788046012A7BD1446D95
:101A9000D0F868024FF47A7503681B689847ADF870
:101AA000A800D8F85C0003685B699847ADF8AA0005
:101AB000D8F854000368DB699847ADF8AC00236898
:101AC00020469B6B9847FFF70BFCADF8AE002368F0
:101AD00020465B6D98472C90236820469B6D984765
:101AE000D8F814304FF47A72B3FBF5F32D902E939F
:101AF000D8E99E010023FFF789FCD8F83C302F90ED
:101B00003093D8F8403020463193D8F8443032939F
:101B1000D8F848303393B8F86030ADF8D030236847
:101B2000DB6B98474FF08141FFF7FEF9FFF7D8FBD9
:101B3000D8F86C30ADF8D200D3F808252046ADF8BF
:101B4000D420D3F80C35ADF8D630D8F8183008F5D5
:101B5000C658B3FBF5F33693236808F11408DB6D20
:101B6000984738AC37902AAA134603CBA342C8F84B
:101B70000000C8F804101A4608F10808F4D13C2007
:101B80005DB0BDE8F08F032A40F02581D0F86802EF
:101B900006AC03680DF124091B68984708F5C65385
:101BA0001433B42223600023C4E90123FFF768F94A
:101BB000B949FFF76DFAB949FFF7B6F9FFF7B6FB78
:101BC000742283B2012120461DF02EFED4E9006765
:101BD0004846A56803F0BCFC002840F0B48099F8A2
:101BE0001030002B00F09B80D9F800200121204606
:101BF00004F076FFD4E90067A56899F811308BB13D
:101C000005F10308B8450DD80123D9F80410735520
:101C1000682335446B700846FFF77EF8FFF786FBB4
:101C2000A870454699F8123093B19D49D9F808003B
:101C3000FFF77AF9FFF77AFB732283B2012120467E
:101C4000C4E90067A5601DF0EFFDD4E90067A56851
:101C50001DF03CF970B12AA81DF03AF9814648B947
:101C60004FF00208DFF830B20DF1A80A9DF8E83015
:101C70004B457ADC2AA81DF014F9002845D005F15F
:101C80000B08B84541D8DDE92A01FEF787FD80A39E
:101C9000D3E90023FEF7DAFEFEF7E8FF8149FFF7FC
:101CA00043F9FFF71DFB0746DDE92C01FEF776FD42
:101CB00077A3D3E90023FEF7C9FEFEF7D7FF7949E2
:101CC000FFF732F9FFF70CFB04462E98FFF7D8F820
:101CD0007149FFF7DDF97149FFF726F9FFF700FBBE
:101CE0000122725588222E44454672703A14B27011
:101CF0003A12F270221472712212B271021432720C
:101D000002123771F4717272B0721DF0BEF820B118
:101D10001DF0BDF808B11DF0CBF8281D30E799F88B
:101D2000133013B1D9F80C2060E7D8F868020368C3
:101D30009B68984701468046FFF7BCFA00287FF46D
:101D40005CAF424652E7D8F8680203689B68984740
:101D500001468046FFF7AEFA00287FF479AF42468D
:101D60000121204604F0BCFE6FE79AF80C306BB3FB
:101D70004A49DAF80000FFF7D7F8FFF7D7FA7422DC
:101D800083B241462046C4E90067A5601DF04CFDC2
:101D90005946DAF80400FFF7C7F8FFF7C7FA4146DB
:101DA00083B2752220461DF03FFDDAF80800FFF7E8
:101DB000BDFA414683B2802220461DF035FDD4E9AC
:101DC000006708F10108A5685FFA88F809F10109C0
:101DD0000AF1100A4AE7052A2FD191F8202002F0D3
:101DE0000302032A40F024815A789B781A4340F07A
:101DF0001F81042341F6D00600F57F75D4F8FC1747
:101E000018468A42BFF6BCAEAD2B3FF6B9AE95F888
:101E1000201079B12F68991948F8017008EB01007A
:101E2000A988818095F82000991D58FA81F107331F
:101E3000DBB288550132A035E0E7062A40F0E480A5
:101E40005C78002C40F0F4809A78B3F80370049228
:101E50009A795D79202A28BF2022934600F51353F2
:101E600000F5355104331C31586A30B15CAA601C4E
:101E700002EB840444F8C83C04B22C338B42F3D107
:101E8000032D17D8DFE805F0104A6682AFF3008013
:101E90000000000065CDCD4100007A440000C8423A
:101EA0000000204100401C4600252AAB04F1FF3A07
:101EB00055451DDB0025A9460BF1050A5FFA8AF39B
:101EC00009AE03935E44049B4B4501DDBC4279DCC3
:101ED00008F5805308F5C6502A46A3F8D448A3F85D
:101EE000D69809A9183025F08DFC05F1080047E6C1
:101EF00001351E46AC46644501DC0433D8E7716801
:101F00001A68486AD2F824E00CF1010C704588BFC9
:101F1000196006F1040688BF3260ECE700252AABA1
:101F200004F1FF3A5545C5DA01351E46AC46644515
:101F300001DC0433F6E771681A68486AD2F824E0D5
:101F40000CF1010C704538BF196006F1040638BF6A
:101F50003260ECE700212AAB04F1FF3E7145A9DABB
:101F6000013118460D46AC4201DC0433F6E7426805
:101F70001E6892F928A096F928900135CA45C8BF75
:101F80001A6000F10400C8BF0660ECE700212AAB2C
:101F900004F1FF3E71458DDA013118460D46AC4221
:101FA00001DC0433F6E742681E6892F928A096F92E
:101FB00028900135CA45B8BF1A6000F10400B8BFC7
:101FC0000660ECE7039BEB18822B059380DCD8F8C6
:101FD00068002AAB056853F827A02D68A847DAF8EF
:101FE00024505146451B5A46A6EB0B0025F00AFC2F
:101FF000039B9AF82810356031711E44059B09F146
:1020000001091D4601375EE7072A11D100F5C654C4
:1020100000F549731434074A0749009300F5257306
:10202000204619F011FD2046FFF75CFA0430A7E5C1
:102030000020A5E5DABD02001DC10200000000007D
:102040004FF0FF332DE9F04100F5405682B00446D1
:1020500000AFC6F8303B1DF083FB04F56D5343E938
:102060000201A06E03681B68984705461DF078FBC7
:10207000374B9D4219D93748B5FBF0F004F544536E
:102080003033C6F8340B4FF420621846002125F097
:10209000DFFB0346D4F86C0268B9D6F8303B002B5E
:1020A00020DA204605F02EF91CE027A3D3E900230F
:1020B000FFF7ACF9E2E7194606F03EFE0028ECD047
:1020C0001C21D6F83C3104F54552013B1832002B57
:1020D000E3DB01FB03F0155AB6F8340B854230D12F
:1020E000C6F8303BB6F8340BD6F83C8104F01EFC41
:1020F0008AB00546184905A81DF089FA0122391D44
:1021000006A8C7F804801DF046FA5A2307A87B608A
:102110001DF041FA294608A81DF079FA40F2024361
:102120006A46ADF824300D4B7B6042F8103F002327
:102130004FF433510A480BF065F80837BD46BDE847
:10214000F081013BC3E700BF005C260500000000F2
:1021500000105E5F8051010026C1020005000001F1
:10216000688D020000000000F7B504461BF091FEE8
:10217000D4F88412002900F0878020461BF0DEFB93
:10218000002800F0818020461DF0FCFD024600285A
:1021900040F08F8023682046D3F8D03098472368DA
:1021A0002046D3F8CC30984704F50055D5F85C1D8F
:1021B000B9B120461BF0C2FB98B10023C5F85C3DC5
:1021C00095F86D3D009395F86C3DD5F8682DD5F8E0
:1021D000641D606D1CF01AFD03214B4A4B481DF035
:1021E00073FAD5F8601D71B120461BF0A7FB50B102
:1021F0000023C5F8603D606D1CF019FD0321444AC1
:1022000042481DF061FAD5F8C01481B120461BF098
:1022100095FB60B1D4F86C0205F070FF0022014616
:1022200004F57E7006F08EFF0023C5F8C03420460A
:102230001DF052FF1DF094FA07460646A06E0D46AB
:1022400003681B689847334B98423FD9324BB0FB29
:10225000F3F004F54053D3F8342B82423ED0C3F858
:10226000340B204605F04EF81DF07AFAD4E99E3181
:10227000D4F87022C4F87002821A9B1841F1000150
:10228000C4E99E3103B0F0BDD4F8801200298BD090
:1022900020461BF053FB002886D020461DF072FD1F
:1022A000014600283FF47BAF002220461CF03EF898
:1022B00075E794F8B33304F511510133DBB20093A1
:1022C0002046002334311DF093FD63E738460CA30C
:1022D000D3E900232946FFF799F8BAE704F56D52D0
:1022E00052E90232F61A0D4B65EB02059E4275F17A
:1022F0000005B9D320461DF0CDFEB5E7AFF3008051
:10230000005C260500000000C5C20200688D0200C6
:10231000DFC2020000105E5F8051010080EE3600D7
:102320002DE9F04FC368064693F888408A46154663
:1023300087B003F1040B74B9CDE902B4CDE90444CC
:102340008DF804108DF80540294601A81CF0C8FD41
:1023500007B0BDE8F08F012C2AD100690368D3F8DB
:10236000803098478046306989460368D3F88430C6
:10237000984717A3D3E9002306460F46404649462F
:102380008DF804A08DF80540CDF808B0FEF734FABA
:10239000FEF744FC0EA3D3E90023039039463046F0
:1023A000FEF72AFAFEF73AFC002304900593CBE7E8
:1023B000D3E90A01D3E90C6701238DF804A08DF855
:1023C0000530CDF808B002A3D3E90023DEE700BF53
:1023D0000000000080842E4170B514460646084671
:1023E000FEF74EFD2146FEF79FFDFFF796F80EA380
:1023F000D3E900230A4D80FB054520462946FEF718
:10240000B5FF0023074A306029462046FEF7AEFF9D
:102410000023044AFEF7AAFF726070BDAFF300808C
:102420003AA3950040420F000010A5D4E800000038
:1024300070B5144606460846FEF722FD2146FEF713
:1024400073FD1349FEF724FEFFF767F80CA3D3E9E9
:102450000023104D80FB054520462946FEF786FFE8
:1024600009A3D3E90023306029462046FEF77EFF0A
:102470000023094AFEF77AFF726070BDAFF3008057
:1024800000209BF35E10000080A8120100000000F5
:1024900000002041D8EF2F0040420F000000000054
:1024A000032970B504460D4606D007294BD00FF01E
:1024B00053FF6FF0850028E0002A38D0072AF8D1B2
:1024C00058681E680346504AC117C6FB0231012BEB
:1024D00071F10002C0F28D804C48181841F10001E2
:1024E00045A3D3E90023FEF741FF022826690DD05A
:1024F00010280DD004280DD008287AD1294620466E
:1025000020F06FF940B16FF0040070BD0025F5E7D1
:102510000125F3E70225F1E73D203D4B33F8151087
:1025200081FB0001FEF7C2FCF0600020EDE7188897
:102530000FF0E4FE011E5CDB2046C9B20FF01AFF6B
:102540000028F2D0DFE7002A49D0072AB1D1B4250C
:102550005A6819682C4BD017C1FB0320A2FB053128
:10256000012A05FB001170F1000028DB294818182A
:1025700041F1000122A3D3E90023FEF7F7FEFA2878
:10258000266924D0B0F5FA7F23D0B0F57A7F22D027
:10259000B0F5FA6F21D07D282BD10425294620469D
:1025A00020F02FF90028AED141F217101A4B33F862
:1025B000151081FB0001FEF779FCF061B5E71748C3
:1025C000181861F100010EA3D3E90023D5E7002517
:1025D000E4E70125E2E70225E0E70325DEE71888C6
:1025E0000FF08CFE011E04DB2046C9B20FF096FEF0
:1025F000A6E76FF0150088E73AA3950000000000F9
:10260000D8EF2F000000000040420F009DD14A008B
:10261000E4AB0200ECF71700DAAB02001408E8FFA5
:102620001BA3D3E900230021C0E900231AA3D3E9A7
:102630000023C0E902231AA3D3E90023C0E904233D
:1026400019A3D3E90023C0E9062319A3D3E9002382
:10265000C0E9082318A3D3E90023C0E90A2318A37B
:10266000D3E90023C0E90C2317A3D3E90023C0E971
:102670000E2300220023C0F8D010C0E93023C0E9A7
:1026800032238022403025F0E3B800BFAFF3008052
:1026900008C9BCF367E6096A3BA7CA8485AE67BB75
:1026A0002BF894FE72F36E3CF1361D5F3AF54FA5A0
:1026B000D182E6AD7F520E511F6C3E2B8C68059B7C
:1026C0006BBD41FBABD9831F79217E1319CDE05B34
:1026D000002110B50446064B4FF4C072C0E96011EA
:1026E000C0E96211C0F8903125F0B2F8204610BD63
:1026F000CDCC4C3E024630B553880178082B28BF1C
:1027000008230B48C1F383010A4C4840604302F19F
:102710004901C2F1FF2202F57F02B7325518AB42E0
:1027200000DC30BD11F8015F68406043F6E700BF90
:10273000C59D1C81930100012DE9F04104460D4621
:102740000746002642F210783B7B3BB17B68EB1AD0
:10275000434503D9314620461AF09AFF0136182E18
:1027600007F11007F0D1D4F88C3153B1ED1A064BB4
:102770009D4206D9D4F884311BB1A3EBD303C4F82E
:102780008431BDE8F08100BFE093040010B5D0F8BB
:102790008831032B26DDD0F88401FEF76DFB4FF066
:1027A0006E51FEF7C1FB00210446FEF765FDE0B95E
:1027B0004FF081412046FEF7AFFA01462046FEF772
:1027C00067FC0B49FEF7B0FB0A49FEF7A5FA4FF08C
:1027D0007E510446FEF764FD10B14FF07E5010BDEF
:1027E0002046FCE74FF07C50F9E70248F7E700BFCE
:1027F0009A99193FCDCCCC3E0048704793BD02005A
:102800000048704780EE360030B5C0E91512C36548
:10281000012200230C4DC0E90533C0E90733C0E9AC
:102820000933C0E90B33C0E90F33C0E91133C0E904
:102830001333056043600372A0F86030436302877E
:1028400080F83A3030BD00BF30930200F8B51D4625
:10285000137817469A090E460B7006D0224A0221B9
:1028600022481EF061FE0020F8BD03F00302092398
:10287000D34013F0010305BF0B81CB80052101215B
:102880001FBFB7F80130F380B7F8033033817C5CA9
:10289000A309032B347101D1154AE0E704F03F048A
:1028A00003FB0444E2B2402A03D801315418AC427D
:1028B00006DD2B460F4A02210C481EF03EFED2E7F1
:1028C000394406F10A0024F09DFF2B1B9BB2B82B64
:1028D000738001D9084AEEE71A46391906F14A0011
:1028E00024F090FF0120BFE704AC0200308D02000D
:1028F0002FAC020058AC02008AAC02002DE9F04F68
:102900000446C3B00DF10808606DFF22036841461C
:102910005B689847051E1BDD2368606D5F68036870
:10292000DB6B98470646606D03689B6B98473146A2
:102930000246434620460095B847E06D03681B6891
:102940009847064638B90121894A8A481EF0ECFDAD
:1029500043B0BDE8F08F01462B4642462046FFF7C4
:1029600075FF002833D0606D0368DB6B98474FF02C
:102970008141FEF7D9FAFEF7B3FC86F80201676DD4
:102980003B683846D3F80CA0DB6B98472A460146D3
:102990003846D0470746606D294603689B689847CC
:1029A000A3690344A36123683046D3F808A01BF051
:1029B00075FD3B46024631462046D04730781AF036
:1029C0003BFF00285ED1A36C0133A3645DE0E06DA2
:1029D000314603685B6898470A2D95DDE06D036812
:1029E0001B689847064600288ED0A5F1080A0146C4
:1029F0005346204604AAFFF729FF00283CD0606D0B
:102A00000368DB6B98474FF08141FEF78DFAFEF7C4
:102A100067FC337886F80201C3F383030321564A27
:102A20005448CDF800A01EF092FD23683046D3F83C
:102A300008B01BF033FD656D07462A682846D2F8BA
:102A40000C90D26B9047524601462846C8473A46FA
:102A5000034631462046D84730781AF0EDFE38B1AB
:102A6000636C01336364314620461AF0E6FF4BE79E
:102A7000A36C0133A364F6E73146E06D03685B683D
:102A8000984741E7636C01336364092296F800A01C
:102A900020460AF00301CA4012F0010F31460AF045
:102AA0003C0A14BF4FF0060B4FF0020BB6F8029031
:102AB00037791AF0C2FFBAF10C0F7FF425AFB9F1E4
:102AC000060F7FF621AFBB0907F03F0703FB07772F
:102AD0005BFA87F70637A5EB070ABAF1020F7FF713
:102AE00013AFE06D03681B689847054600283FF464
:102AF0000BAF01465346204608EB0702FFF7A6FE40
:102B0000002830D096F9023185F802312B78C3F3D2
:102B100083030321194A1748CDF800A01EF017FDC2
:102B200023682846D3F808B01BF0B8FC676D8146CF
:102B30003A683846D668D26B9047524601463846C6
:102B4000B0474A46034629462046D84728781AF017
:102B500073FE20B1636C01336364294684E7A36C80
:102B60000133A364F9E7E06D294603685B6887E7F2
:102B7000BAAC0200308D0200D9AC020019AD0200DF
:102B80002DE9F04FCBB00446806D00AF03681B68A1
:102B900098470546E06D294603681B69984728B9A0
:102BA000206207F59677BD46BDE8F08F20461AF003
:102BB0007DFE236820469B699847064600283ED044
:102BC000E06D4FF0000903685B6998478246CA458B
:102BD00002DC4FF0000817E0E06D49460368DB694E
:102BE0009847804610B909F10109F0E7E06D4946C0
:102BF00003685B6A9847401B0028F4DC40461AF0E3
:102C000077FE80460028EED0606DFF2103689B6848
:102C10009847B8F1000F12D1636A4208B3EB500F26
:102C20000DD2E56C002DBCD06421D21A731E01FBBD
:102C30000233B3FBF6F0216D0130A847B1E7606DB8
:102C40000368DB6A98470646606D03681B6B98470C
:102C5000804616B9002840F0A6802046E1691AF0A7
:102C60006DFE40B9E36C002B9BD0E069216D013013
:102C7000401B984795E7236A0BB92B462562ED1A4E
:102C8000236820461B6A984785427BD9B4F8603098
:102C9000606D43F00203A4F8603003689B6A9847B4
:102CA0007860606D0268926B9047FDF74DFDC7E953
:102CB0000401606D0268D26B9047FDF745FDC7E9DE
:102CC0000201606D0268D26990478346606D0268B8
:102CD000526D90478246606D0268D26D9047C7F88A
:102CE00018D0F86192B0A04A07F12801BA6205A88D
:102CF00001221AF085FD06A80E601AF081FDC1F8C8
:102D0000008007A81AF07CFD7B6808A80B601AF009
:102D100077FDD7E904230AA8C7E90A2302221AF09B
:102D20006FFDD7E902890CA8C7E90A891AF068FD86
:102D300001220EA8C1F800B01AF062FD0FA8C1F878
:102D400000A01AF05DFDFB6910A80B601AF058FD99
:102D50000D236A460B6042F8103F002346F64001FF
:102D600082480AF04FFA606DD7F818D003685B6BA1
:102D7000984700232362E36C002B3FF412AF01203D
:102D8000216D76E723682046DB69984701460546B2
:102D900020461AF0DFFDE36CE061002B3FF401AF49
:102DA000216D681C65E7E06D266203682946DB6AD1
:102DB00098472072E06D29460368DB689847606099
:102DC00000283FF4EEAE0922037807F1280888F8BE
:102DD000003003F0030322FA03F3DB074ABF0522A6
:102DE0000122C38802F1010644BFA8F8013003891B
:102DF00000F10A0148BFA8F80330037908EB060088
:102E000008F8023040221BF02FFBD4F8049006444F
:102E1000B9F802A00AEB0603FF2B2BDDE8468AB0C7
:102E2000534B07F12401012205A87B621AF0E8FC4C
:102E300006A80E601AF0E4FC07A8C1F800A01AF07A
:102E4000DFFCFF2308A80B601AF0DAFC05236A46B2
:102E50000B6042F8103F00234FF4215143480AF021
:102E6000D1F9E06DC546036861685B689847002347
:102E7000636096E6524609F14A0108EB060024F029
:102E8000C1FC606DB9F802900368B14449469B6883
:102E9000984700EB4006606D25610368B6F5167F24
:102EA000DB6A34BF4FF49676760898470546606D26
:102EB00003681B6B984705B9F0B923682046DB69A6
:102EC0009847E66D0146336805462046D3F80880EA
:102ED000D4F8049094F808A01AF03CFD524603463A
:102EE00049463046C04700236360E36C002B3FF443
:102EF00058AE2846216DBCE6606D414603684A46DF
:102F00001B699847804648BB23682046DB69984781
:102F1000054601210346174A14481EF00EFB666859
:102F200023683046D3F810901BF0B8FA31460246B9
:102F30002046C847E66D294633682046D3F80890F6
:102F4000D4F804A094F808B01AF004FD5A460346D9
:102F500051463046C847C4F80480C6E7314620468B
:102F60001AF0F8FCE0601CE64BAD0200308D020068
:102F7000D0AD0200FBAD02002DE9F743044608790D
:102F80000D4617461E461BF05FFA6A88A8B1B82A9C
:102F900013D8D4F85C803146D8F800302046D3F8F6
:102FA00008901AF0D7FC3A46034629464046C847DF
:102FB000E36C8BB903B0BDE8F0832B79012108489D
:102FC0000092084A1EF0C3FA2946E06D03685B6868
:102FD00003B0BDE8F04318473046216DF8E700BF65
:102FE000308D02002FAE020070B5B8B00146044625
:102FF000684623F0D8FD9DF80030013BDBB2FD2B85
:1030000038D8274B28AA03F1400615461868596896
:10301000083303C5B3422A46F7D1224B08AA03F16D
:103020002006154618685968083303C5B3422A4676
:10303000F7D108A920A816F01BFA214620AA10A84B
:1030400023F05DFD694620A816F012FA20AA28A9EF
:1030500018A823F054FD202218A910A81BF02CFB5F
:10306000044658B9202110A81BF060FB202118A8A5
:103070001BF05CFB0024204638B070BD002310A973
:1030800011F8012B1AB90133202BF9D1144610A8DD
:1030900020211BF04BFB202118A81BF047FBEAE77F
:1030A00080AE0200C1AE020038B504461D46059B45
:1030B000FFF7AAFB084B65662360049B04F17000D0
:1030C000A366069BE366FFF703FB04F501701AF0A5
:1030D000C0FD204638BD00BF6C9302002DE9F041D1
:1030E00017460A78064602F03C04242C0D4603D10C
:1030F000BDE8F0411AF01EBC013BDCB2022C07D93E
:1031000002211548154A1EF00FFA29463046EFE70E
:1031100022F0030242F00102A4010A700C71C06E99
:1031200003685B6898472B78C3F38303082B10D0A0
:10313000042B14BF01240324336829463046DB6C7A
:1031400098472246C31929463046BDE8F041FFF7AB
:1031500013BF0224F0E700BF488D0200E2AE020078
:103160002DE9F0411F460B78064603F03C0CBCF1FC
:10317000240F0C469DF8185003D1BDE8F0411AF019
:10318000D9BB013DEDB2022D07D902211548164ADF
:103190001EF0CAF921463046EFE723F003030B7017
:1031A0001388AD01CB8053880D710B81C06E03680D
:1031B0005B6898472278C2F38302082A10D0042A59
:1031C00014BF01250325336821463046DB6C984740
:1031D0002A46C31921463046BDE8F041FFF7CCBE70
:1031E0000225F0E7488D0200E2AE02002DE9F04F23
:1031F000F5B00E78054606F00303023B012B0C46A2
:1032000006AF00F24D8306F03C02242A0B795CD114
:103210003F2B1BD84E88082E18D991F852C0093E72
:103220000CF003029340F6B21FFA83FE76450FD8E6
:103230000A340568D1F84E30D1F84A20CDE900C4EF
:10324000039601F1530602962C6EA047002037E04A
:103250000121533301FA02F200F50171E01824F064
:1032600006FB0028F2D12B6821462846DB6B9847E5
:103270000028EBD0E86E214603681B6898470028B9
:10328000E4D1E86E214603685B68984794F902012F
:10329000FDF7F6FD4FF07A51FDF746FE4FF0814104
:1032A000FDF742FEFEF71CF8237921465A1C234401
:1032B000227198722B6828465B6C984740F0C0607A
:1032C00007F5DE77BD46BDE8F08F2C2A03F03F03FB
:1032D0000AD191F94A20002A80F2DF82002BB5D171
:1032E00003685B6F9847B1E74BB90C2A40F0D8826E
:1032F0000368D1F84A20D3F884309847A6E70C2A0F
:1033000005D10368D1F84A20D3F884309847227950
:1033100005F501719209013204F10A0024F0A7FABF
:10332000002893D12B6821462846DB6B984700285C
:103330008CD02378C3F383030A2B04D1214628467B
:103340001AF058FF82E7E86E032B026821461268E4
:1033500013D19047064600287FF478AFE86E2146E7
:1033600003685B689847214628461AF045FE3246B6
:10337000214628461AF0E7FE68E7904700287FF4C8
:1033800065AFE86E214603685B689847214628468A
:103390001AF032FE2B68214628465B6C984740F0B5
:1033A00080708DE72B68214628469B6B9847002844
:1033B0007FF44CAF20781AF01BFD002800F07682D5
:1033C0002046FFF797F90646A86D05F170080368D7
:1033D0001B6898473146024640461AF09FF920B1D3
:1033E000314628461AF066FD60E22B6828469B6C41
:1033F0009847002800F05A82A86D03681B68984718
:103400003146024640461AF063F94FE26388032BC7
:1034100005D80221994A9A481EF08FF816E7E86EFF
:1034200021460368D4F84A601B68984700287FF457
:103430000DAFE86E214603685B6898472B683246FB
:1034400021462846D3F8843098472B6821462846E1
:103450005B6B984734E794F84B3094F84A80FB73E1
:103460006388042B07D800930223864A19468448B0
:103470001EF06DF8EAE6E86E214603681B6898477F
:10348000064600287FF4E2AEE86E214603685B68DA
:10349000984795F804324345D7D104F14C037B603B
:1034A0002B6828465B6D07F10F019847804607F1AE
:1034B000300907F1B40B464521DA2B6832464946FC
:1034C00028469B6D98476388594648467A68023B70
:1034D0001BF009F9B0F1000A40F386802278C2F3AC
:1034E0008302082A74D19BF8008040461AF0ACFF92
:1034F00058B902214346644A61481EF01EF8022171
:10350000624A5F481EF010F89FE74FEA981108F0F2
:103510003F0201FB0222501C504520DBE8468AB0E6
:1035200006AE5B4906F11800716101211AF0ADFC8D
:1035300005231146324606F11C001AF0A6FC51463E
:1035400006F120001AF0A1FC3B6142F8103F002375
:103550004FF422514A4809F055FEC546CFE70232E2
:10356000AAEB0203DBB25A442968039204931BF8C6
:10357000003007F1B50A03F00F03CDE90183CDF860
:1035800000A0D1F864B04B46324621462846D847C1
:10359000D8B120781AF02CFCB8B10023CDE9023361
:1035A0000193237907F10F0100934A46284604F15D
:1035B0000A031AF0D4FE014638B14FF4FA735246AA
:1035C0000093284643461AF06EFEFF2323703CE723
:1035D0002968CDE901BACDF80090D1F85C80334676
:1035E00021462846C047F0E7013664E76388232B6D
:1035F0007FF62CAEE86E2146036894F84A601B689B
:10360000984700287FF422AEE86E214603685B6885
:10361000984795F80432B3427FF417AF04F14B0694
:1036200007F1100204F16B0C13463068716808361C
:1036300003C366451A46F7D107F1100207F13001BE
:1036400005F501701AF087FB638807F1B40832466C
:103650004146213B07F130001BF045F800287FF779
:10366000F4AE2B68CDE900802146DE6E284607F1D6
:10367000100307F13002B047A7E700BF04AF020014
:10368000488D020032AF020069AF0200D6AF0200DF
:1036900095AF020094F84A3007F1100888F800301E
:1036A0006388032B7FF6D2ADE86E214603681B6862
:1036B0009847064600287FF4C9ADE86E21460368A6
:1036C00007F1300A5B6898472B684146D3F87C9035
:1036D000524604232846C847804604F14B0B07F1A5
:1036E000310907F1B4014645BFF6AFAE63884846DD
:1036F0005A46013B1AF0F7FF002809F1210907F1AA
:10370000B4010EDD227806EB46132E68CDE90010D9
:10371000534421462846D6F88060C2F38302B0475E
:1037200093E60136DFE707F130001AF080FA07F17F
:10373000300604F14A0304F16A0C324618685968ED
:10374000083303C263451646F7D16388632B7FF6BF
:103750007DAD202207F1300105F5017024F087F8D6
:1037600000283FF473ADE86E21460368D4F86A8000
:103770001B68984700287FF469ADE86E214603680E
:1037800007F1B40A5B689847D446668807F1300EA3
:10379000643E202E28BF2026BEE80F00ACE80F00B4
:1037A0009EE80F0004F1AE098CE80F00324649464E
:1037B00007F1D800C7F8D48024F024F8524606F167
:1037C000240304F16E0107F130001AF038FA0028E2
:1037D0003FF476AD2B68CDE9009621469E6E2846D3
:1037E000434607F13002B0472FE603F00303023BE4
:1037F000012B3FF62BADE86E214603681B68984706
:1038000000287FF423ADE86E214603685B68984783
:103810002B68214628469B6F64E56288022A7FF662
:1038200015AD94F84A3003F00F03032B7FF40EAD6F
:10383000042A7FF60BAD07F1B40630461AF0FFFDFF
:103840002378402287F8B43004F10A01237907F184
:10385000BE001AF01AFE628887F8B800013A92B2E8
:1038600004F14B0107F1FE00A7F8B62023F0CAFFD0
:10387000E86E314603681B68984700287FF4E6AC81
:10388000E86E314603685B6898472B6831462846E6
:10389000D3F88430D7F8FE202FE5002B7FF437AD26
:1038A00030461AF0A5FA00287FF47CAD2378C3F3E4
:1038B00083020F2A3FF6CAAC01A151F822F000BFE3
:1038C0005734000057340000573400000D34000016
:1038D000273700009536000095360000ED350000D2
:1038E000573400004D3200001B3800004D320000FC
:1038F0004D3200004D3200004D320000EB37000029
:103900002DE9F843022907460D4690461E46DDF88C
:10391000249009D809F11103B82B0FD90221154AB7
:1039200015481DF001FE05E0144A0B46124802211D
:103930001DF003FE00242046BDE8F88319F0E6FFE1
:10394000044610B901210E4AEAE7AD00057098F867
:10395000003000F14C0180F84A3097F80432089AA0
:1039600080F84B304B4630461AF091FE02306080B2
:10397000E1E700BF02B00200488D020021B0020062
:1039800045B002000022104630B5074BD3F8205155
:103990009C33AA4200DB30BD53F8044F0132641A55
:1039A000002CD8BF0130F4E7BC5A0020014BD3F8FB
:1039B00020017047BC5A0020014BD3F8200170470A
:1039C000E05B0020044BD3F820219142B4BF53F8B0
:1039D00021000020704700BFBC5A0020044BD3F8E0
:1039E00020219142BABF283153F8210000207047AE
:1039F000BC5A0020054BD3F820018142BDBF2831BD
:103A0000012043F821200020704700BFBC5A00204D
:103A10000022FF2070B50A4BD3F8206103F19C050A
:103A20008033B24200DB70BD55F8044F641A002C9D
:103A300003DC9C5CA04228BF20460132F1E700BFB6
:103A4000BC5A002037B50B4B0A7804460D46D3F814
:103A50002031C2F38302022100920748074A1DF079
:103A600076FD2946204623685B6803B0BDE83040F8
:103A7000184700BF98590020588D020077B0020007
:103A800008B502481AF073FD08BD00BFBC5A0020FB
:103A900008B502481AF06BFD08BD00BF9859002018
:103AA00008B502481AF041FD08BD00BFBC5A00200D
:103AB00038B50B4B1C786CB901220A4D1A700023E3
:103AC00029461A46084801341AF073FD202C05F5E2
:103AD0008275F4D1002104481AF027FD38BD00BFDB
:103AE000C2AD0020408D0020E05B002008B521B170
:103AF000002302481A461AF05CFD08BDE05B002076
:103B00002DE9F04F85B01646484A0446D2F8208188
:103B10000D46994600AFB8F1000F5AD00023194660
:103B2000184602F17F0E98454ADC0A4492F880302C
:103B3000B3424ED93D483B601AF0F7FC95F800A01F
:103B400090F800B0C7F804D08AB080466A46CBF33C
:103B5000830BCAF3830A364905A8F96007F10C0103
:103B60001AF0D6FC06A8C7F80CB01AF0D1FC3B68D6
:103B700007A8FB601AF0CCFC08A8C7F80CA01AF044
:103B8000C7FC09A8FE601AF0C3FC0623FB6042F8DC
:103B9000103F00234FF44251264809F033FB2368BD
:103BA000414620465B68D7F804D098474B463246DA
:103BB00029461E481AF0FDFC1437BD46BDE8F08FBB
:103BC0001EF801CF844534BF844619466046013350
:103BD000A9E795F800A0E9468AB06A46CAF3830AC5
:103BE000154B07F10C0105A8FB601AF091FC06A823
:103BF000C7F80C801AF08CFC07A8C7F80CA01AF0C4
:103C000087FC08A8FE601AF083FC0523FB6042F8DD
:103C1000103F00234FF42251064809F0F3FA2368BD
:103C2000CD46294620465B689847C5E7BC5A002028
:103C3000ACB00200588D0200EEB002002DE9F04158
:103C4000044608480D4616461F461AF0B2FC38B91D
:103C50003B46324629462046BDE8F041FFF750BFBB
:103C6000BDE8F081BC5A002038B50446134606482A
:103C700000220D461AF09DFC28B929462046BDE8D1
:103C80003840FFF7DFBE38BD9859002038B5002412
:103C9000094D281904F582741AF0D1FBB4F5025FBE
:103CA000F7D106481AF037FC05481AF034FC0548ED
:103CB0001AF031FC38BD00BF408D0020E05B0020D1
:103CC000BC5A0020985900202DE9F04194B00746D5
:103CD0000C4616460021142207A81D4623F0B8FD05
:103CE0004FF48853ADF818304FF48073ADF81A30A4
:103CF0004FF48063DFF85C802022CDE90838394634
:103D000004AB06A823F077FA034650B1124A01210A
:103D100012481DF012FC4FF0FF34204614B0BDE8ED
:103D2000F08105AB0293202301930CAB2246009354
:103D300041463346049823F03AFB0446049823F0A6
:103D40003EFA14B1064A2346E1E7BDF830302B8035
:103D5000E3E700BF090080033CB10200988D020038
:103D600060B102002DE9F0478EB00D4604AF12F0AD
:103D70000F01824614461E4697F848800BD0134622
:103D8000334A012133481DF0D8FB4FF0FF3028376C
:103D9000BD46BDE8F08714222F4BB8183B6123F0D5
:103DA00057FDB8F1000F0CBF4FF400734FF4807350
:103DB0001022DFF8A890BB6151463B1DB818C7F828
:103DC0001C9023F018FA034608B1254AD9E707F1F9
:103DD000080378682A46CDE9014349462346009600
:103DE000B8F1000F2FD015F0FDFF0446786823F0DE
:103DF000E6F95CB31B4B1C4D6E468AB0B8F1000F60
:103E000008BF1D4604AA194B07F10C0102F114006A
:103E1000FB601AF0F6FB3046FD601AF0F2FB02F18F
:103E20001C00FC601AF0EDFB4FF400731384104B80
:103E3000FB6042F8103F00234FF41151054809F090
:103E4000E1F9B546A1E716F069F8CEE7B8689EE754
:103E500099B10200988D02000024800000444004C3
:103E6000B7B1020091B1020089B10200D1B10200E4
:103E70000400000130B58DB00D4611461A4603AB63
:103E800001932023044600930E4804AB23F07FFAED
:103E9000034660B101210C4A0C481DF04EFB2A4636
:103EA000002120460DB0BDE8304023F0D1BC202DCC
:103EB0002A46204628BF202204A923F0A3FC0DB0E7
:103EC00030BD00BF09000002EAB10200988D020077
:103ED0002DE9F043A7B00446DDE92E780D461646DD
:103EE000002170220AA8994623F0B2FC19490AA8B9
:103EF00023F0FEF9E8B94A4631460AA823F019FA38
:103F0000B8B9424639460AA823F013FA88B92022E4
:103F100001AB02A90AA823F023FA50B9202D2A46A2
:103F2000204628BF202202A923F06CFC27B0BDE860
:103F3000F08301210346084A08481DF0FEFA0AA84A
:103F400023F0C7F92A460021204627B0BDE8F043F8
:103F500023F07EBC0900000206B20200988D020028
:103F600008B5054B002814BF0146194603481CF04C
:103F700028FE012008F0A6FD21B202002DB20200A9
:103F80000346F0B50A4D8E18B14203F1020303D186
:103F9000002300F81230F0BD11F8014B270904F09E
:103FA0000F04EF5D2C5D03F8027C03F8014CEBE796
:103FB00029F60200004870475CB2020000487047D2
:103FC0005CB20200004870476AB2020008B503689C
:103FD0001B689847BDE80840014601481BF080B9BE
:103FE0009895020008B510460249FDF773FA0020C3
:103FF00008BD00BF78B2020037B5124C204620F051
:10400000AEFD10B9104803B030BDA5684C21204664
:10401000EB6898470028F5D10C216A4620462B69A9
:1040200098470028EED10198FCF72AFF0749FDF7D1
:104030002FF804460098FCF723FF01462046FCF7C2
:104040006BFEE0E7EC8102000000C07F00247449B1
:1040500070B5C3680C4615469BB393F87430DA1FED
:10406000052A32D81A4A073B52F8236021463046C7
:10407000FDF716F948BB2846FCF702FF4FF06E51DA
:10408000FCF752FF01464FF07E50FCF743FE3146ED
:1040900005462046FCF73EFE0E49FCF7F9FF0146B7
:1040A0002846FCF741FF00210446FDF7DBF860B924
:1040B0004FF07E512046FDF7F3F820B14FF07E50CF
:1040C00070BD0823CEE72046FAE70020F8E700BFDE
:1040D00038950200000020412DE9F843C368884666
:1040E000002B00F08E8093F874609C6F93F87570CD
:1040F0000C2E354628BF0C252046062D444938BFD6
:104100000625FDF7AFF800B1424C082F28BF08275D
:104110000120052F00FA05F038BF0527FCF7B0FE97
:104120003D4981462046FCF7FFFE01464846FCF724
:10413000AFFF0446082E8CBF10202020FCF7A0FE05
:104140003649FCF7E9FD2146FCF7EEFE3449064608
:104150002046FDF7A5F8002857D04FF07E59284695
:10416000FCF78EFE05464046FCF78AFE4FF0824182
:10417000FCF7DAFE4FF0814180462846FCF7D4FE7A
:1041800001464046FCF7C6FD2649FCF7C5FD4FF049
:104190008341FCF7C1FD494680464846FCF7BCFD1B
:1041A00001462846FCF7B6FD4FF08141FCF7BCFE06
:1041B0004FF07E510546FDF755F808B14FF08145A7
:1041C00029464046FCF764FF19F0E8F905463846F1
:1041D000FCF756FE2946FCF7A7FE002123F0CFFD91
:1041E0004FF08241FCF798FD2146FCF79DFE3146D9
:1041F000FCF792FD0849FCF797FEFDF797F8BDE83C
:10420000F8830826084C374672E74FF00009A6E706
:104210000000E0400000FA4200007A4400008840BC
:104220005A2F863C0000E041000078422DE9F04F13
:10423000036889B0D3F8943004468A46914698477B
:10424000804638B949465046364A09B0BDE8F04F75
:1042500017F0D0BB94F8223A94F81E1A94F91F2A4A
:104260000493B4F8203ACDE902031318CDE90023F2
:104270002D4A2E4B5046002908BF13462C4A29EAE6
:10428000E97117F0B7FB94F91F6A6FF007030C2E62
:10429000A8BF0C269E42B8BF1E469E42074606F1A6
:1042A000FF3507D00C2E06F1010B06D14FF00C0B99
:1042B0000A2502E06FF0050B1D4604EBC504AB4573
:1042C00003DA384609B0BDE8F08FB4F8B629B4F87F
:1042D000BAC92AB36421530801FB0C33B3FBF2F3D0
:1042E0000693B4F8BC394F45CDE904C3B4F8B839E6
:1042F000B8BFA9EB0701CDE9022308EB0503CDE91F
:104300000053A8BF00210AEB0700AE4214BF2023D0
:104310002A23084A17F06EFB013507440834CEE71C
:104320001346DDE7B5B20200DECC020038D502004C
:10433000BDB20200E4B202002DE9F047099C1E461E
:104340009DF9208031B92AB904F62430BDE8F04740
:104350001AF0A1BB04F6540948461AF080FAC5B217
:1043600004F658001AF07BFA6F1C07F00707C0B27A
:10437000874210D11B4802211B4A1DF0D5F804F6D4
:1043800024301AF088FBD4F8683A43B3D4F86C0AA6
:10439000BDE8F0471847B2F5807F28BF4FF4807220
:1043A0004FF4837392465D4305F124002044254475
:1043B00023F028FA39464846A5F824A1A5F8266135
:1043C00085F828811AF029FB3046FCF759FDE06199
:1043D0004046FCF755FD206204F61C30D1E7BDE8ED
:1043E000F08700BF988C020004B302000C2A2DE96C
:1043F000F043A8BF0C221E466FF0070383B09A4219
:10440000B8BF1A4600AF97F82890036880F81E1AC4
:1044100080F81F2AA0F8206A80F8229A8846D3F8EC
:1044200090301146144698478AB06A46104905A84C
:104430001AF0D1FA414606A81AF0C5FA214607A893
:104440001AF0C1FA314608A81AF0B5FA494609A887
:104450001AF0B1FA06237B6042F8103F00234FF4B4
:104460004351044808F0CEFE0C37BD46BDE8F0834A
:1044700026B30200988C02002DE9F0411A4B82B05D
:104480001A4EE84600AF88B004460D46002908BF22
:104490001E466A4680F83A1A154905A81AF09BFA92
:1044A000314606A81AF097FA4FF40073ADF81C30A5
:1044B000104B7B6042F8103F0F4800234FF4E65149
:1044C00008F0A0FE04F11400C5461AF0C8F928B19E
:1044D000236829462046D3F88030984701200837C2
:1044E000BD46BDE8F08100BF65B302005DB30200C8
:1044F0006EB3020003000001988C020070B5044600
:104500002E480025C4E9021320600023002000216A
:104510000126C4E9042504F52362E3612571A56140
:104520002362C4F85458C4F85858C4F86C59C4F8F5
:10453000705984F87459A4F81E5AA4F8205A84F8C3
:10454000225A42E90201C2E90001A4F8385A84F86B
:104550003A6AC4F83C5AC4F8405AA4F8585AC4F805
:104560005C3AC4F8603AA4F8645AC4F8685AC4F8CB
:104570006C5AC4F8705AC4F8745A84F8185BC4F8BA
:104580001C5BC4F8205BC4F8245B04F65C1020F0CC
:10459000DDFF3246294604F5306020F0DBFB29467A
:1045A0004FF4036204F1240023F052F9A8222946B3
:1045B00004F6761023F04CF9204670BD9C9402005E
:1045C000F0B590F8183B044689B0B3B900F67825E9
:1045D000002600270A20CDE90043CDE902300493EC
:1045E0002846CDE90667064B13F06AFC05492846C4
:1045F00020F09DFC012384F8183B09B0F0BD00BFFA
:10460000FD49000093B302002DE9F8430C4605462E
:10461000174600211422204623F01AF995F8593A3A
:10462000002B37D0D5F85C0AD5F8609A95F8648AE3
:1046300095F8656A2A49FCF777FCFCF777FE20605D
:104640004846FCF773FE83B21F2B08D035D80F2BDA
:1046500005D030D8072B02D00A2B18BF7D23A380AA
:10466000B31F022B96BF043E0126F6B2B8F1080F25
:104670008CBF1023202384F80680E6712381EB6829
:104680002BBB1623A3720223E3730423E772237464
:10469000BDE8F883EB683BB1986CD3F8789093F859
:1046A000748093F87560C5E74FF00808DFF8349020
:1046B00046460D48BEE7142BCFE7FA2BCFD003D8E0
:1046C000292BCCD03E2BC8E7B3F5FA7FC5E793F989
:1046D0004C30162BA372D4DC0933D4DAF723D1E79C
:1046E00000247449000078428D67594408B590F859
:1046F000593A5BB1D0F85C0A0749FCF715FC4FF05A
:104700007C51FCF709FBFCF711FE08BDC3680BB137
:10471000986CF1E70148EFE7002474498D6759442C
:1047200008B590F8593A63B1D0F8600A0849FCF727
:10473000FBFB4FF07C51FCF7EFFAFCF7F7FD80B282
:1047400008BDC3680BB1986FF0E70248EEE700BF01
:1047500000002041000078422DE9F04F05468FB05F
:1047600004AF1AF04DFA95F8393A05F11402BA601F
:10477000002B00F0FE802846002207F11401FFF70D
:1047800043FF3B8BB87E1F2B00F0DD8000F2C8801A
:104790000F2B00F0DB8000F2BC80072B00F0D980EB
:1047A00042F6B1028A490A2B18BF0A4606288CBF76
:1047B00008230C23B7F81CA04FEA4308FB6008F15C
:1047C00001039A4540F3F88001218140814800238C
:1047D000A1FB0001FCF71AFE2B680446D3F89830C1
:1047E0002846984781460F20AAEB080808F1FF38B1
:1047F00004FB08F864220023A8FB0001FCF706FE76
:1048000009F5FA63A8EB00029342D5F83C1A80F050
:10481000C5800AF10E036343D7F80CC0A2EB09066A
:104820009E420CFB044408D20133A3EB080303446B
:104830004B445B089C4238BF1C468C4203D1D5F8E0
:10484000403AB34244D0C7F804D08CB0C5F83C4AD3
:10485000C5F8406A0DF110084FF47A7B08F1140096
:104860005D491AF0B8F8B4FBFBF108F118001AF032
:10487000A2F8B6FBFBF108F11C001AF09CF8B9FB9A
:10488000FBF108F120001AF096F8514608F12400D7
:104890001AF099F8F96808F128001AF094F86420E1
:1048A00000232244A6FB0001FCF7B0FD014608F1FD
:1048B0002C001AF080F8424608233B6142F8103F72
:1048C000002344F2C001454808F09CFCD7F804D00E
:1048D0000021A8681F344FEA5412846841F1000394
:1048E000246A1F3641F10001760942EAC36246EAB2
:1048F000C1665B094909002C3BD0DFF8E4C0CDE973
:1049000000610395CDF808C0A047034648BB0121CC
:104910003DE045F261122E49142B18BF0A4645E7C7
:10492000FA2B19D008D8292B18D04FF22442284945
:104930003E2B18BF0A4639E7254A2A49B3F5FA7FC4
:1049400008BF0A4632E747F612222FE743F609521C
:104950002CE741F6846229E7234A27E74AF2C3227B
:1049600024E710F1580F04D00121204A1B481CF005
:10497000E4FDA8682A46836819495B699847031EC5
:10498000C5DA01211A4A15481CF0D7FD0021B86884
:104990001AF043F82C37BD46BDE8F08F0131E8D05E
:1049A0004FF0FF33C5F83C3A4B460092114A0321C1
:1049B0000A481CF0CCFDDCE7D5F83C2A0132D8D0FF
:1049C0004FF0FF32C5F83C2A0B4A00935346EEE7FE
:1049D00048E8010040420F00A0B30200988C02009A
:1049E0003943000020A1070090D00300DCB302008F
:1049F00099B40200FCB3020044B402002DE9F04374
:104A000004468BB00321454A45481CF08DFD4FF00C
:104A1000FF324FF0FF3304F5306004F1180613F055
:104A200001F8304619F01BFF0028F0D04FF00108C4
:104A30001022002105A804F65C1722F009FF8DF86A
:104A400021800997384604AA03A920F087FDDDF8E4
:104A50000C90B9F1000F19D0384620F07CFD206988
:104A60000368DB6998472046FFF776FE3046002151
:104A700019F0D3FF04F532601AF00DF8D4F8703A4B
:104A8000002BC4D0D4F8740A9847C0E700234146ED
:104A9000244A05A814F018F810F10B0F054610D1A0
:104AA000214A41461E481CF03FFD20690368DB692E
:104AB00098472046FFF750FE0021304619F0ADFF21
:104AC000DCE7089BE0B903F4FE12B2F5804F17D182
:104AD000384620F040FD20690368DB69984720468E
:104AE000FFF73AFE3046294619F097FF04F5326089
:104AF00019F0D1FF03210D4A09481CF015FDBDE74F
:104B0000C3F3863301210093094A2B4604481CF065
:104B10001EFD384620F01FFDC7E700BFB4B40200F9
:104B2000988C02005A620200CBB40200DDB402008D
:104B3000F7B402002DE9F043044683B000AFFFF75D
:104B40000BFE2368204694F83A1AD3F88030984731
:104B5000E468002C38D02049A06CFCF7E5F9FCF79C
:104B6000E5FB0646A06FFCF7E1FB94F8749094F81F
:104B7000758094F94C4085B28CB06A46174905A8F7
:104B800019F029FF314606A819F015FF294607A894
:104B900019F019FF494608A819F015FF414609A860
:104BA00019F011FF21460AA819F00DFF07237B60B9
:104BB00042F8103F00234FF46351094808F022FBEC
:104BC0000C37BD46BDE8F0834FF008083E25C146CE
:104BD0001624044ED0E700BF002474492CB502000F
:104BE000988C02005051D53310B5044680681FF0F0
:104BF000B6FF30B9BDE810400121044A04481CF05A
:104C000093BC2046BDE81040FFF794BF5CB502009E
:104C1000988C02002DE9F04383B0054655F8143B0B
:104C2000044600AF1B6F98470021284619F0F5FE97
:104C3000236884F8581A2046DB6C98472046FFF713
:104C40008BFDE468002C38D01F49A06CFCF76CF990
:104C5000FCF76CFB0646A06FFCF768FB94F87480C9
:104C600094F8759094F94C4085B28CB06A46174917
:104C700005A819F0B0FE314606A819F09CFE294699
:104C800007A819F0A0FE414608A819F09CFE494665
:104C900009A819F098FE21460AA819F094FE0723E6
:104CA0007B6042F8103F00234FF46351084808F03E
:104CB000A9FA0C37BD46BDE8F0834FF008083E2541
:104CC000C1461624034ED0E70024744972B5020091
:104CD000988C02005051D533B2F5807F2DE9F84F02
:104CE00004468A4617463EDC03681B6B9847054618
:104CF000002838D023682046DB6A9847064690BBD8
:104D0000206904F11809036804F65C089B69984758
:104D10000121484619F081FE204619F074FF5146E2
:104D20003A46404622F06EFD04F65C1A504620F0EA
:104D300012FC23683A46D3F874B0414653462046E5
:104D4000D847031E13DA01210E4A0F481CF0F5FB69
:104D500020690368DB6998474846314619F05DFED3
:104D60002046FFF7F9FC00252846BDE8F88F3146BC
:104D700004F1140019F051FE04F5306012F018FE31
:104D8000F2E700BFA7B50200988C02002DE9F04FB2
:104D900087B090F91F4A00AFC7E90270C7E90470F5
:104DA0003860054604F1080107F1080019F07BFEA0
:104DB000B0F1FF3F80463CD095F822BA04F1070AD3
:104DC0000BEB8B067600BBF1000F36D00B2C60DCB2
:104DD00007F1100019F007FEB04281462FDD611C7B
:104DE0002B6849B285F81F1A2846D3F890309847A7
:104DF0006C468AB095F91F5A6A464D4905A819F0C4
:104E0000EAFD294606A819F0DEFD494607A819F073
:104E1000DAFD314602F1200019F0D5FD05237B6053
:104E200042F8103F00234FF42351424808F0EAF9BA
:104E3000A5461C37BD46BDE8F08F0B2C29DC04F1DC
:104E4000090107F1080019F02EFEB0F1FF3F81467D
:104E50001FD0A8EB0003312B1BDD611C2B6849B26E
:104E600085F81F1A2846D3F8903098476C468AB0C8
:104E70006A4695F91F5A304905A819F0ACFD294634
:104E800006A819F0A0FD414607A819F09CFD494667
:104E9000C0E7514607F1100019F0A5FD8146BBF1AE
:104EA000000F42D0633E8642D4BF00260126E31D98
:104EB000BFDB514607F1080019F0F5FDB0F1FF3FE7
:104EC0008246B6D0A0EB0803312BB2DCB8F1320F2A
:104ED000AFDC002EADD0013C61B22B6885F81F1A03
:104EE0002846D3F8903098476C468AB06A4695F9C0
:104EF0001F5A124905A819F06EFD294606A819F097
:104F000062FD414607A819F05EFD514608A819F058
:104F10005AFD494609A819F056FD06237B6042F860
:104F2000103F00234FF443517FE70126BFE700BF46
:104F3000BEB50200988C0200F2B502001EB6020057
:104F40002DE9F047044620F09DF94FF47A75A0FB57
:104F5000050647F6122205FB01610023FCF756FA0D
:104F6000D4F8303AD4F8342A07460E46014653EABC
:104F7000020004F5236560D1C4F8307A6E6055E90B
:104F80000223891A66EB03024FF47A73B4F8200AFD
:104F900080FB0303814272EB0303C0F2D28004F171
:104FA0001408404619F05BFC002800F0CA8004F1A8
:104FB000180019F054FC002840F0C38023682046F4
:104FC0001B6B9847002800F0BC8023682046DB6AF2
:104FD0009847002840F0B580236820469B6F98478B
:104FE00010F1800F00F0AD80D4F86C391BB107339D
:104FF000984200F3A68045E90276204619F0A4FE07
:1050000023680146D3F88C3006462046984705466B
:105010000021404619F001FD2046FFF79DFB002DC1
:1050200018DA15F1580F00F08C8002212B46BDE8EC
:10503000F047454A45481CF080BA4548CB1A66EB14
:10504000020298424FF00003934198DA204619F08B
:1050500061FE91E74FF6EF7304EBC606B6F8B6298A
:105060009A4202D9204619F055FEB6F8B6390133F6
:10507000A6F8B639002D50D0B6F8B839204601331D
:10508000A6F8B839FFF74CFB024600284DD0204661
:1050900019F023FD42F210758540B5FBF2F541F29F
:1050A000873305EB45059D423FD92A4B9D423ED8AB
:1050B0004FF47A73B5FBF3F547F6122C40F2E73064
:1050C00000214FF47A72E5FB0C010023FCF79EF9F6
:1050D000042580468A46D4F86C9909F107073FB247
:1050E000404651461FF0EBFF23682046DB6A984795
:1050F00050B9B9F1000F07D0236820469B6F98473D
:105100008742ACBF00200120013D12D00028E7D02B
:10511000B6F8BC390133A6F8BC3994F81E3A83B10D
:105120002046BDE8F047FFF731BE0525C4E76425FA
:10513000C2E70028ECD1B6F8BA390133A6F8BA397B
:10514000EBE7BDE8F08700BF50B60200988C020084
:1051500000974901878A0100F0B51C4B83B01C4DB4
:105160006E4600AF88B00446002908BF1D466A4657
:1051700080F8391A174905A819F02DFC294606A808
:1051800019F029FC4FF40073ADF81C30124B7B6012
:1051900042F8103F114800234FF4E65104F1140582
:1051A00008F030F82846B54619F059FB50B123688D
:1051B00020461B6F98472846002119F02EFC2046F8
:1051C000FFF7CAFA0C37BD46F0BD00BF65B3020059
:1051D0005DB3020067B6020003000001988C020074
:1051E00070B50D4616460424314628461CF018FDBD
:1051F00048B140F2391000211FF061FF013CF3D1AA
:105200000148FEF7ADFE70BD88B602002DE9F04FF3
:10521000DFF85882ADF5257D04460D46174600217E
:105220004FF4007224A81E4622F012FB98F80030BA
:1052300043B98F481BF0C5FC98F8003013B98D486E
:105240001BF0BFFC402124A81CF0EAFC98F80030B9
:1052500081463BB924A819F0FBFD49460246864821
:105260001BF0AFFC102200210AA822F0F1FA102155
:105270000AA80AF0B7FE002301460DF1CF020DF196
:10528000280C8B4201DA102B58D198F80030002BF3
:1052900040F0E78079481BF094FCBFB1B6B1202EF6
:1052A000314628BF20213A460DF1DF037E1812F85F
:1052B000010B13F8017FB24280EA07001870F6D1A3
:1052C00098F8003043B96E481BF07BFC98F800302A
:1052D00013B96C481BF075FC402180A81CF0A0FCA1
:1052E00098F80030064673B980A819F0B1FD314630
:1052F000024665481BF065FC98F800301BB929464A
:1053000062481BF05EFC0023079314F0ABFE2023E1
:1053100007AF00934FF400725D4801971CAB24A9BE
:1053200022F035F8064610B9079F202F0FD0202114
:105330001CA819F0FBF95748FEF712FE12F801EF0E
:105340001CF8010B013380EA0E00107099E701464A
:10535000142217A822F07CFA4FF41053ADF85830FD
:105360004FF480734C4A0DF12008CDE91832ADF8A6
:105370005A301CA943463A4616A8C8F8006021F0E6
:105380003AFF064639461CA819F0D0F9002ED2D1B2
:10539000102231460EA822F05BFA37460DF1240A9E
:1053A000BD42D8F8000017D90023CAF800301023F6
:1053B0000DF1380B0DF148095A463749CDF808A0D0
:1053C0000193CDF8009014F00DFD18B9DAF8003013
:1053D000102B14D04FF0FF36D8F8000021F0EFFE6C
:1053E00010210EA819F0A2F9002EA4D1012319460C
:1053F0002544AC421CD101B933B328489CE7EA1BD1
:10540000102A28BF1022E0194946059222F0FAF925
:10541000059A17444A4612F8013D0133DBB2137076
:105420000BB95A45F7D11021484619F07FF9B7E773
:1054300014F8012B32B1FF2A14BF002303F001033B
:105440000021D6E71346D4E724A84FF4007119F0E1
:105450006DF910210AA819F069F90DF5257DBDE84F
:10546000F08F002F7FF41AAF36E700BFC3AD0020E6
:10547000A9B60200CDB6020015B7020044B702007B
:1054800085B70200A7B70200F4B7020023B80200F4
:10549000090000025CB80200004440047BB802002E
:1054A000002330B5044689B01A4620216846FFF72C
:1054B000ADFE6946204618F0D8FB65252378013BF0
:1054C000DBB2FD2B05D82021684619F02FF909B071
:1054D00030BD013D02D10748FEF742FD002368467A
:1054E0001A462021FFF792FE6946204618F0BDFBC0
:1054F000E4E700BFA6B8020038B504464068FBF7F1
:10550000BFFC0649FBF7C4FD05462068FBF7B8FC65
:1055100001462846FBF700FC38BD00BF0024744953
:1055200010B50024044B1C700321044A04481BF0EE
:10553000FBFF204610BD00BFC4AD0020D9B802005B
:10554000888D0200014B1878704700BFC4AD002061
:1055500013B514220021044622F07AF912481FF0F4
:10556000FEFA78B1104819F0AAFC58B96A460C2125
:105570000D4819F0A8FC28B96846FFF7BDFF0123C4
:10558000E060E374237C5BB9607C58B9A37C2BB9E1
:10559000E37C002B14BF00206FF03C0002B010BD74
:1055A0000020FBE71846F9E7EC81020008B503216B
:1055B000024A03481BF0B8FF002008BDF6B80200FD
:1055C000888D020070B4CE7D46B1CD68541B054D68
:1055D000AC4203D81BB970BC19F034BD002370BCB9
:1055E00018467047809706002DE9F84F032B0646B2
:1055F000894690461F460A9D2FD819F00FFD044694
:10560000A0B38668464528D2C1689620691AA8EBDF
:105610000606761A4FF000033C4AA1FB000169EB35
:105620000909FBF7A3FE10F12D020B4641F1000121
:10563000B24271EB09010ADB6FF02C024FF0FF312F
:10564000121A61EB0303964279EB030307DA012395
:105650002561A382C4E90285A775BDE8F88F4FF6DE
:10566000FF72A38A9342F5D00133F2E71821034673
:1056700006F1170001FB03F210F802C0BCF1000FA5
:105680000ED1B418D9F800302360D9F80430C4E939
:105690000285636001232561A382A775E375DCE7BA
:1056A0000133202BE6D131464FF0000A4FF0180BA2
:1056B0002A46304619F0C6FCCB6818B11448EA1ADD
:1056C000824217D98A7DBA4214D9ECB1A07D8242B8
:1056D0001AD803D1888AA28A904215D30BFB0A629A
:1056E00060695269424032F07F4203D1E2689342DE
:1056F00038BF0C460AF1010ABAF1200F01F1180176
:10570000D6D1002CBED1A8E70C46F3E740420F00EB
:1057100080510100034690F8100338B1D3F80C33E0
:105720000348C91A81428CBF00200120704700BF86
:105730007F3A09002DE9F3478A46164600211822D0
:1057400004461D4622F084F8DAF800733246BE4261
:105750002CBF002301235146237404F11800009349
:105760002B4619F07CFC237E1BB940F201232380D9
:1057700014E0BE422ED2A37E022B02D840F20133A7
:10578000F5E7D4E90832B3F1960642F1FF32B6F5F7
:10579000167F72F1000305DA01236370204602B020
:1057A000BDE8F08729465046FFF7B4FF08B105234E
:1057B000F3E79AF8203343B145F25F41DAF81C333E
:1057C000EB1A8B4201D80623E7E70223C4E9026201
:1057D0002370E3E7637E052BD0D9A27EB3EB420FA3
:1057E00002DB40F20143C2E7D4E90887002F4646B6
:1057F000B94602DA764267EB4709B6F5167F79F1CA
:105800000003C9DB29465046FFF784FF0028CED1AC
:105810009AF8203333B145F25F42DAF81C33EB1AC1
:105820009342D0D99AF81833ABB14FF49670DAF8A6
:105830001433154AED1AA5FB00010023FBF796FD72
:1058400010F5167041F10001B04271EB090102DA66
:1058500040F201738BE7022318F5616F424640F670
:10586000116123703B4677F1FF37BCBF4FF0FF3328
:10587000064A8A4273F10001A4BF4FF4616200231B
:10588000C4E902238AE700BF40420F00F0F1FFFFA6
:105890002DE9F04F93B08046894602AF1FF0F2FC2D
:1058A0004FF47A74A0FB040547F61222002304FB90
:1058B0000151FBF7ABFD4FF47A720023FBF756FD65
:1058C000D9F8003038601B68484698473B68024664
:1058D0000646414607F1100019F0C9FC3B7C022B3B
:1058E0001AD1D7E9065B98F80423D2B1BBF1000FB7
:1058F00017DAD8F834230132C8F834234FF0FF31D7
:10590000494A2B4695427BEB0101B8BF1346474AF3
:10591000022147481BF011FE00204437BD46BDE878
:10592000F08F6FF001004FF0000A76194BF1000282
:10593000711E42F1FF3288427AEB02023D4C0FD2D7
:10594000AC427AEB0B0A09DB4FF0FF32364B9D423B
:105950007BEB020200DB2B46374AD9E72346FBE705
:1059600097F82030D9F80020314652687B604846CD
:105970009047304619F0B3FC052006F021FC7B6807
:105980002A4601933B68404600935B4619F058FC59
:10599000AC427AEB0B0A07DB4FF0FF32224CA542F8
:1059A0007BEB0202A8BF2C467A68244B244DE846C4
:1059B0008CB0002A08BF1D4697F82AA097F82B90B4
:1059C00002AA204B07F10C0102F11400FB6019F050
:1059D000FDFA02F11800FC6019F0F8FA02F11C005F
:1059E000FD6019F0F3FA02F12000C7F80CA019F0DD
:1059F000EDFA02F12400C7F80C9019F0E7FA4046DE
:105A0000FE6019F0E3FA40F2013393850E4BFB6020
:105A100042F8103F064800234FF4725107F0F2FBA2
:105A20000120C54679E700BF006CCA8833B902007F
:105A3000908D0200009435776DB9020029B90200FB
:105A40001FB902008DB90200070000010138C0B281
:105A500006289ABF024B53F820000248704700BF47
:105A60007C950200E3BF02002DE9F04FB1B00B932B
:105A700005463A9B8846164601460B9A16A89DF89D
:105A8000ECA0FFF757FEDDE91E799DF858209DF840
:105A90006830022A9DF87040099340F03581DDE9B5
:105AA000181095F8042322B1002880F2A081B74A8B
:105AB00004E0B74B8B428241B64A07DB4FF0FF3C14
:105AC000B54B994270EB0C0C00DB0B46B348B14967
:105AD000DDF824C0BCF1000F18BF014622A8CDE9B3
:105AE00000123821AE4A15F085FFBAF1000F00F020
:105AF0003081AC4BA74A9DF871109DF872009DF85B
:105B000073C0002C00F028814FF0000EA04CBC4266
:105B10007EEB090E07DB4FF0FF3E9F4CA74279EB6F
:105B20000E0EA8BF3C46209F0DF1880ECDE9011056
:105B3000CDE903C4009231464046CDE9057E9A4A3C
:105B400015F058FF041EC0F24D81B44280F04A8126
:105B5000D5F82C33FBB1D5E9CE1C00208C4AD5F802
:105B600030738A4270EB0C0007DB4FF0FF308A4A3B
:105B700091427CEB0000A8BF0A46CDE90072311BC0
:105B800008EB0400894A15F035FF241800F12A813A
:105B9000B44280F02781D5F834335BB1311B08EB78
:105BA0000400834A15F026FF241800F11B81B4423B
:105BB00080F0188128463A99FFF7ACFD98B13A99E0
:105BC000284619F07BFB4FF46163311BB0FBF3F304
:105BD000784A08EB040015F00DFF241800F102814B
:105BE000B44280F0FF80D5F82833311B009308EBD6
:105BF0000400D5F82433704A15F0FCFE241800F197
:105C0000F180B44280F0EE8005F540730A934FF0C6
:105C1000000A2B46DA7D0AB10AF1010A0A9A183302
:105C20009342F7D14FF0000BD946CA4540F3A98003
:105C30002F468BF001030F93FB7D002B00F0958026
:105C4000099B394628463A9AFFF7BCFC0F9B8342D2
:105C500040F08B8008EB04030893331B0C933B78D4
:105C60003A9A0D937B78B98A0E93FB686329A2EB6D
:105C70000303BA6828BF63219B184FF0000242EB70
:105C8000020E0B9A97F816C09B1A414A6EF1000E4D
:105C90009A424FF0000272EB0E025FDB3E4A9342E3
:105CA0004FF0FF327EEB02025ADBDFF8E8E0434AB6
:105CB000CDE901C1002808BF7246CDE903320E9B31
:105CC0003F4A0093311B0D9B08EB040015F092FE38
:105CD000002802DB2044B04244D30023089ACA457E
:105CE00013704EDDAAEB09031821364A10A815F0EF
:105CF00081FE0C9B0546834243D9421C10A908989B
:105D000021F080FD2C443CE0BDF85830B3F5807F95
:105D100015D1B9F1000F3B464A4602DA7B4269EBE6
:105D2000490240F22D118B4272F10002B4BF264BA2
:105D3000264B274A382122A815F05CFED5E69DF8AF
:105D40005900FFF783FE03460AB9224AF2E7224AC6
:105D5000F0E7224B224ACEE62746E5E60C4BA4E7C5
:105D60000D4BA2E7044609F101090A9B18379F422F
:105D70007FF462AF0BF10103022B4FF0010B7FF4B4
:105D800054AF204631B0BDE8F08F00BFBAB9020071
:105D90000094357793BD0200006CCA88D3B9020025
:105DA000F9B9020038D502001DBA020052BA020049
:105DB00072BA020080BA02008ABA0200F6B9020082
:105DC0009EBA0200BABA0200E0B90200E3B90200CA
:105DD00023C1020006BA020010BA0200DECC0200A3
:105DE000EBB902000023741E08F80430C9E7002252
:105DF000024B8B428241024A66E600BF009435772F
:105E000093BD020010B5044607F02EF9044823465E
:105E10000121044A1BF091FB012006F053FE00BF54
:105E2000388D020030BB020008B5806883681B68AB
:105E30009847031E06DA04480121044A1BF07DFB43
:105E4000002008BD0120FCE7A08C020077BB020007
:105E500010B50446FEF752FB014B2046236010BDEF
:105E6000A895020010B504464FF400620349FEF7FE
:105E7000A7FB2046BDE81040FEF7B6BE70B6002076
:105E8000014818F0A8BC00BFF800002010B547F684
:105E9000122C0446002140F2E7304FF47A720023BE
:105EA000E4FB0C01FBF7B2FABDE8104002460B46DA
:105EB000014811F0C1BF00BF3000002038B5064DC9
:105EC0002B681BB1441E14F8011F01B938BD2868A6
:105ED00019F06AFAF7E700BF3862002010B50446EF
